{
  "address": "0x5FbDB2315678afecb367f032d93F642f64180aa3",
  "abi": [
    {
      "inputs": [
        {
          "internalType": "address",
          "name": "_proxyRegistryAddress",
          "type": "address"
        }
      ],
      "stateMutability": "nonpayable",
      "type": "constructor"
    },
    {
      "anonymous": false,
      "inputs": [
        {
          "indexed": true,
          "internalType": "address",
          "name": "owner",
          "type": "address"
        },
        {
          "indexed": true,
          "internalType": "address",
          "name": "approved",
          "type": "address"
        },
        {
          "indexed": true,
          "internalType": "uint256",
          "name": "tokenId",
          "type": "uint256"
        }
      ],
      "name": "Approval",
      "type": "event"
    },
    {
      "anonymous": false,
      "inputs": [
        {
          "indexed": true,
          "internalType": "address",
          "name": "owner",
          "type": "address"
        },
        {
          "indexed": true,
          "internalType": "address",
          "name": "operator",
          "type": "address"
        },
        {
          "indexed": false,
          "internalType": "bool",
          "name": "approved",
          "type": "bool"
        }
      ],
      "name": "ApprovalForAll",
      "type": "event"
    },
    {
      "anonymous": false,
      "inputs": [
        {
          "indexed": false,
          "internalType": "address",
          "name": "userAddress",
          "type": "address"
        },
        {
          "indexed": false,
          "internalType": "address payable",
          "name": "relayerAddress",
          "type": "address"
        },
        {
          "indexed": false,
          "internalType": "bytes",
          "name": "functionSignature",
          "type": "bytes"
        }
      ],
      "name": "MetaTransactionExecuted",
      "type": "event"
    },
    {
      "anonymous": false,
      "inputs": [
        {
          "indexed": true,
          "internalType": "address",
          "name": "previousOwner",
          "type": "address"
        },
        {
          "indexed": true,
          "internalType": "address",
          "name": "newOwner",
          "type": "address"
        }
      ],
      "name": "OwnershipTransferred",
      "type": "event"
    },
    {
      "anonymous": false,
      "inputs": [
        {
          "indexed": true,
          "internalType": "address",
          "name": "from",
          "type": "address"
        },
        {
          "indexed": true,
          "internalType": "address",
          "name": "to",
          "type": "address"
        },
        {
          "indexed": true,
          "internalType": "uint256",
          "name": "tokenId",
          "type": "uint256"
        }
      ],
      "name": "Transfer",
      "type": "event"
    },
    {
      "inputs": [],
      "name": "ERC712_VERSION",
      "outputs": [
        {
          "internalType": "string",
          "name": "",
          "type": "string"
        }
      ],
      "stateMutability": "view",
      "type": "function"
    },
    {
      "inputs": [
        {
          "internalType": "address",
          "name": "to",
          "type": "address"
        },
        {
          "internalType": "uint256",
          "name": "tokenId",
          "type": "uint256"
        }
      ],
      "name": "approve",
      "outputs": [],
      "stateMutability": "nonpayable",
      "type": "function"
    },
    {
      "inputs": [
        {
          "internalType": "address",
          "name": "owner",
          "type": "address"
        }
      ],
      "name": "balanceOf",
      "outputs": [
        {
          "internalType": "uint256",
          "name": "",
          "type": "uint256"
        }
      ],
      "stateMutability": "view",
      "type": "function"
    },
    {
      "inputs": [],
      "name": "baseTokenURI",
      "outputs": [
        {
          "internalType": "string",
          "name": "",
          "type": "string"
        }
      ],
      "stateMutability": "pure",
      "type": "function"
    },
    {
      "inputs": [
        {
          "internalType": "address",
          "name": "userAddress",
          "type": "address"
        },
        {
          "internalType": "bytes",
          "name": "functionSignature",
          "type": "bytes"
        },
        {
          "internalType": "bytes32",
          "name": "sigR",
          "type": "bytes32"
        },
        {
          "internalType": "bytes32",
          "name": "sigS",
          "type": "bytes32"
        },
        {
          "internalType": "uint8",
          "name": "sigV",
          "type": "uint8"
        }
      ],
      "name": "executeMetaTransaction",
      "outputs": [
        {
          "internalType": "bytes",
          "name": "",
          "type": "bytes"
        }
      ],
      "stateMutability": "payable",
      "type": "function"
    },
    {
      "inputs": [
        {
          "internalType": "uint256",
          "name": "tokenId",
          "type": "uint256"
        }
      ],
      "name": "getApproved",
      "outputs": [
        {
          "internalType": "address",
          "name": "",
          "type": "address"
        }
      ],
      "stateMutability": "view",
      "type": "function"
    },
    {
      "inputs": [],
      "name": "getChainId",
      "outputs": [
        {
          "internalType": "uint256",
          "name": "",
          "type": "uint256"
        }
      ],
      "stateMutability": "view",
      "type": "function"
    },
    {
      "inputs": [],
      "name": "getDomainSeperator",
      "outputs": [
        {
          "internalType": "bytes32",
          "name": "",
          "type": "bytes32"
        }
      ],
      "stateMutability": "view",
      "type": "function"
    },
    {
      "inputs": [
        {
          "internalType": "address",
          "name": "user",
          "type": "address"
        }
      ],
      "name": "getNonce",
      "outputs": [
        {
          "internalType": "uint256",
          "name": "nonce",
          "type": "uint256"
        }
      ],
      "stateMutability": "view",
      "type": "function"
    },
    {
      "inputs": [
        {
          "internalType": "address",
          "name": "owner",
          "type": "address"
        },
        {
          "internalType": "address",
          "name": "operator",
          "type": "address"
        }
      ],
      "name": "isApprovedForAll",
      "outputs": [
        {
          "internalType": "bool",
          "name": "",
          "type": "bool"
        }
      ],
      "stateMutability": "view",
      "type": "function"
    },
    {
      "inputs": [
        {
          "internalType": "address",
          "name": "_to",
          "type": "address"
        }
      ],
      "name": "mintTo",
      "outputs": [],
      "stateMutability": "nonpayable",
      "type": "function"
    },
    {
      "inputs": [],
      "name": "name",
      "outputs": [
        {
          "internalType": "string",
          "name": "",
          "type": "string"
        }
      ],
      "stateMutability": "view",
      "type": "function"
    },
    {
      "inputs": [],
      "name": "owner",
      "outputs": [
        {
          "internalType": "address",
          "name": "",
          "type": "address"
        }
      ],
      "stateMutability": "view",
      "type": "function"
    },
    {
      "inputs": [
        {
          "internalType": "uint256",
          "name": "tokenId",
          "type": "uint256"
        }
      ],
      "name": "ownerOf",
      "outputs": [
        {
          "internalType": "address",
          "name": "",
          "type": "address"
        }
      ],
      "stateMutability": "view",
      "type": "function"
    },
    {
      "inputs": [],
      "name": "renounceOwnership",
      "outputs": [],
      "stateMutability": "nonpayable",
      "type": "function"
    },
    {
      "inputs": [
        {
          "internalType": "address",
          "name": "from",
          "type": "address"
        },
        {
          "internalType": "address",
          "name": "to",
          "type": "address"
        },
        {
          "internalType": "uint256",
          "name": "tokenId",
          "type": "uint256"
        }
      ],
      "name": "safeTransferFrom",
      "outputs": [],
      "stateMutability": "nonpayable",
      "type": "function"
    },
    {
      "inputs": [
        {
          "internalType": "address",
          "name": "from",
          "type": "address"
        },
        {
          "internalType": "address",
          "name": "to",
          "type": "address"
        },
        {
          "internalType": "uint256",
          "name": "tokenId",
          "type": "uint256"
        },
        {
          "internalType": "bytes",
          "name": "_data",
          "type": "bytes"
        }
      ],
      "name": "safeTransferFrom",
      "outputs": [],
      "stateMutability": "nonpayable",
      "type": "function"
    },
    {
      "inputs": [
        {
          "internalType": "address",
          "name": "operator",
          "type": "address"
        },
        {
          "internalType": "bool",
          "name": "approved",
          "type": "bool"
        }
      ],
      "name": "setApprovalForAll",
      "outputs": [],
      "stateMutability": "nonpayable",
      "type": "function"
    },
    {
      "inputs": [
        {
          "internalType": "bytes4",
          "name": "interfaceId",
          "type": "bytes4"
        }
      ],
      "name": "supportsInterface",
      "outputs": [
        {
          "internalType": "bool",
          "name": "",
          "type": "bool"
        }
      ],
      "stateMutability": "view",
      "type": "function"
    },
    {
      "inputs": [],
      "name": "symbol",
      "outputs": [
        {
          "internalType": "string",
          "name": "",
          "type": "string"
        }
      ],
      "stateMutability": "view",
      "type": "function"
    },
    {
      "inputs": [
        {
          "internalType": "uint256",
          "name": "_tokenId",
          "type": "uint256"
        }
      ],
      "name": "tokenURI",
      "outputs": [
        {
          "internalType": "string",
          "name": "",
          "type": "string"
        }
      ],
      "stateMutability": "pure",
      "type": "function"
    },
    {
      "inputs": [],
      "name": "totalSupply",
      "outputs": [
        {
          "internalType": "uint256",
          "name": "",
          "type": "uint256"
        }
      ],
      "stateMutability": "view",
      "type": "function"
    },
    {
      "inputs": [
        {
          "internalType": "address",
          "name": "from",
          "type": "address"
        },
        {
          "internalType": "address",
          "name": "to",
          "type": "address"
        },
        {
          "internalType": "uint256",
          "name": "tokenId",
          "type": "uint256"
        }
      ],
      "name": "transferFrom",
      "outputs": [],
      "stateMutability": "nonpayable",
      "type": "function"
    },
    {
      "inputs": [
        {
          "internalType": "address",
          "name": "newOwner",
          "type": "address"
        }
      ],
      "name": "transferOwnership",
      "outputs": [],
      "stateMutability": "nonpayable",
      "type": "function"
    }
  ],
  "transactionHash": "0x85b49e1318c5b2e0ed25bed20eba763ff87ab6fb41509a86b3cb83090f32c489",
  "args": [
    "0x0000000000000000000000000000000000000000"
  ],
  "numDeployments": 1,
  "solcInputHash": "263d0858584b7cc0615cc480430740f4",
  "bytecode": "0x60806040526000600660006101000a81548160ff0219169083151502179055503480156200002c57600080fd5b50604051620041453803806200414583398181016040528101906200005291906200058b565b6040518060400160405280600781526020017f546573744e4654000000000000000000000000000000000000000000000000008152506040518060400160405280600481526020017f544e4654000000000000000000000000000000000000000000000000000000008152508282828160009080519060200190620000d992919062000471565b508060019080519060200190620000f292919062000471565b50505062000115620001096200018860201b60201c565b620001a460201b60201c565b80600b60006101000a81548173ffffffffffffffffffffffffffffffffffffffff021916908373ffffffffffffffffffffffffffffffffffffffff1602179055506200016d600a6200026a60201b6200129c1760201c565b6200017e836200028060201b60201c565b505050506200072e565b60006200019f6200030260201b620012b21760201c565b905090565b6000600960009054906101000a900473ffffffffffffffffffffffffffffffffffffffff16905081600960006101000a81548173ffffffffffffffffffffffffffffffffffffffff021916908373ffffffffffffffffffffffffffffffffffffffff1602179055508173ffffffffffffffffffffffffffffffffffffffff168173ffffffffffffffffffffffffffffffffffffffff167f8be0079c531659141344cd1fd0a4f28419497f9722a3daafe3b4186f6b6457e060405160405180910390a35050565b6001816000016000828254019250508190555050565b600660009054906101000a900460ff1615620002d3576040517f08c379a0000000000000000000000000000000000000000000000000000000008152600401620002ca906200061e565b60405180910390fd5b620002e481620003b560201b60201c565b6001600660006101000a81548160ff02191690831515021790555050565b60003073ffffffffffffffffffffffffffffffffffffffff163373ffffffffffffffffffffffffffffffffffffffff161415620003ae57600080368080601f016020809104026020016040519081016040528093929190818152602001838380828437600081840152601f19601f820116905080830192505050505050509050600080369050905073ffffffffffffffffffffffffffffffffffffffff818301511692505050620003b2565b3390505b90565b6040518060800160405280604f8152602001620040f6604f91398051906020012081805190602001206040518060400160405280600181526020017f310000000000000000000000000000000000000000000000000000000000000081525080519060200120306200042c6200046460201b60201c565b60001b604051602001620004459594939291906200066c565b6040516020818303038152906040528051906020012060078190555050565b6000804690508091505090565b8280546200047f90620006f8565b90600052602060002090601f016020900481019282620004a35760008555620004ef565b82601f10620004be57805160ff1916838001178555620004ef565b82800160010185558215620004ef579182015b82811115620004ee578251825591602001919060010190620004d1565b5b509050620004fe919062000502565b5090565b5b808211156200051d57600081600090555060010162000503565b5090565b600080fd5b600073ffffffffffffffffffffffffffffffffffffffff82169050919050565b6000620005538262000526565b9050919050565b620005658162000546565b81146200057157600080fd5b50565b60008151905062000585816200055a565b92915050565b600060208284031215620005a457620005a362000521565b5b6000620005b48482850162000574565b91505092915050565b600082825260208201905092915050565b7f616c726561647920696e69746564000000000000000000000000000000000000600082015250565b600062000606600e83620005bd565b91506200061382620005ce565b602082019050919050565b600060208201905081810360008301526200063981620005f7565b9050919050565b6000819050919050565b620006558162000640565b82525050565b620006668162000546565b82525050565b600060a0820190506200068360008301886200064a565b6200069260208301876200064a565b620006a160408301866200064a565b620006b060608301856200065b565b620006bf60808301846200064a565b9695505050505050565b7f4e487b7100000000000000000000000000000000000000000000000000000000600052602260045260246000fd5b600060028204905060018216806200071157607f821691505b60208210811415620007285762000727620006c9565b5b50919050565b6139b8806200073e6000396000f3fe60806040526004361061014b5760003560e01c80636352211e116100b6578063a22cb4651161006f578063a22cb46514610499578063b88d4fde146104c2578063c87b56dd146104eb578063d547cfb714610528578063e985e9c514610553578063f2fde38b146105905761014b565b80636352211e1461038957806370a08231146103c6578063715018a614610403578063755edd171461041a5780638da5cb5b1461044357806395d89b411461046e5761014b565b806318160ddd1161010857806318160ddd1461027957806320379ee5146102a457806323b872dd146102cf5780632d0335ab146102f85780633408e4701461033557806342842e0e146103605761014b565b806301ffc9a71461015057806306fdde031461018d578063081812fc146101b8578063095ea7b3146101f55780630c53c51c1461021e5780630f7e59701461024e575b600080fd5b34801561015c57600080fd5b50610177600480360381019061017291906122e0565b6105b9565b6040516101849190612328565b60405180910390f35b34801561019957600080fd5b506101a261069b565b6040516101af91906123dc565b60405180910390f35b3480156101c457600080fd5b506101df60048036038101906101da9190612434565b61072d565b6040516101ec91906124a2565b60405180910390f35b34801561020157600080fd5b5061021c600480360381019061021791906124e9565b6107b2565b005b610238600480360381019061023391906126cd565b6108ca565b60405161024591906127b9565b60405180910390f35b34801561025a57600080fd5b50610263610b3c565b60405161027091906123dc565b60405180910390f35b34801561028557600080fd5b5061028e610b75565b60405161029b91906127ea565b60405180910390f35b3480156102b057600080fd5b506102b9610b92565b6040516102c69190612814565b60405180910390f35b3480156102db57600080fd5b506102f660048036038101906102f1919061282f565b610b9c565b005b34801561030457600080fd5b5061031f600480360381019061031a9190612882565b610bfc565b60405161032c91906127ea565b60405180910390f35b34801561034157600080fd5b5061034a610c45565b60405161035791906127ea565b60405180910390f35b34801561036c57600080fd5b506103876004803603810190610382919061282f565b610c52565b005b34801561039557600080fd5b506103b060048036038101906103ab9190612434565b610c72565b6040516103bd91906124a2565b60405180910390f35b3480156103d257600080fd5b506103ed60048036038101906103e89190612882565b610d24565b6040516103fa91906127ea565b60405180910390f35b34801561040f57600080fd5b50610418610ddc565b005b34801561042657600080fd5b50610441600480360381019061043c9190612882565b610e64565b005b34801561044f57600080fd5b50610458610f06565b60405161046591906124a2565b60405180910390f35b34801561047a57600080fd5b50610483610f30565b60405161049091906123dc565b60405180910390f35b3480156104a557600080fd5b506104c060048036038101906104bb91906128db565b610fc2565b005b3480156104ce57600080fd5b506104e960048036038101906104e4919061291b565b610fd8565b005b3480156104f757600080fd5b50610512600480360381019061050d9190612434565b61103a565b60405161051f91906123dc565b60405180910390f35b34801561053457600080fd5b5061053d611074565b60405161054a91906123dc565b60405180910390f35b34801561055f57600080fd5b5061057a6004803603810190610575919061299e565b6110b1565b6040516105879190612328565b60405180910390f35b34801561059c57600080fd5b506105b760048036038101906105b29190612882565b6111a4565b005b60007f80ac58cd000000000000000000000000000000000000000000000000000000007bffffffffffffffffffffffffffffffffffffffffffffffffffffffff1916827bffffffffffffffffffffffffffffffffffffffffffffffffffffffff1916148061068457507f5b5e139f000000000000000000000000000000000000000000000000000000007bffffffffffffffffffffffffffffffffffffffffffffffffffffffff1916827bffffffffffffffffffffffffffffffffffffffffffffffffffffffff1916145b80610694575061069382611363565b5b9050919050565b6060600080546106aa90612a0d565b80601f01602080910402602001604051908101604052809291908181526020018280546106d690612a0d565b80156107235780601f106106f857610100808354040283529160200191610723565b820191906000526020600020905b81548152906001019060200180831161070657829003601f168201915b5050505050905090565b6000610738826113cd565b610777576040517f08c379a000000000000000000000000000000000000000000000000000000000815260040161076e90612ab1565b60405180910390fd5b6004600083815260200190815260200160002060009054906101000a900473ffffffffffffffffffffffffffffffffffffffff169050919050565b60006107bd82610c72565b90508073ffffffffffffffffffffffffffffffffffffffff168373ffffffffffffffffffffffffffffffffffffffff16141561082e576040517f08c379a000000000000000000000000000000000000000000000000000000000815260040161082590612b43565b60405180910390fd5b8073ffffffffffffffffffffffffffffffffffffffff1661084d611439565b73ffffffffffffffffffffffffffffffffffffffff16148061087c575061087b81610876611439565b6110b1565b5b6108bb576040517f08c379a00000000000000000000000000000000000000000000000000000000081526004016108b290612bd5565b60405180910390fd5b6108c58383611448565b505050565b606060006040518060600160405280600860008a73ffffffffffffffffffffffffffffffffffffffff1673ffffffffffffffffffffffffffffffffffffffff1681526020019081526020016000205481526020018873ffffffffffffffffffffffffffffffffffffffff16815260200187815250905061094d8782878787611501565b61098c576040517f08c379a000000000000000000000000000000000000000000000000000000000815260040161098390612c67565b60405180910390fd5b6109df6001600860008a73ffffffffffffffffffffffffffffffffffffffff1673ffffffffffffffffffffffffffffffffffffffff1681526020019081526020016000205461160a90919063ffffffff16565b600860008973ffffffffffffffffffffffffffffffffffffffff1673ffffffffffffffffffffffffffffffffffffffff168152602001908152602001600020819055507f5845892132946850460bff5a0083f71031bc5bf9aadcd40f1de79423eac9b10b873388604051610a5593929190612ca8565b60405180910390a16000803073ffffffffffffffffffffffffffffffffffffffff16888a604051602001610a8a929190612d6a565b604051602081830303815290604052604051610aa69190612d92565b6000604051808303816000865af19150503d8060008114610ae3576040519150601f19603f3d011682016040523d82523d6000602084013e610ae8565b606091505b509150915081610b2d576040517f08c379a0000000000000000000000000000000000000000000000000000000008152600401610b2490612df5565b60405180910390fd5b80935050505095945050505050565b6040518060400160405280600181526020017f310000000000000000000000000000000000000000000000000000000000000081525081565b60006001610b83600a611620565b610b8d9190612e44565b905090565b6000600754905090565b610bad610ba7611439565b8261162e565b610bec576040517f08c379a0000000000000000000000000000000000000000000000000000000008152600401610be390612eea565b60405180910390fd5b610bf783838361170c565b505050565b6000600860008373ffffffffffffffffffffffffffffffffffffffff1673ffffffffffffffffffffffffffffffffffffffff168152602001908152602001600020549050919050565b6000804690508091505090565b610c6d83838360405180602001604052806000815250610fd8565b505050565b6000806002600084815260200190815260200160002060009054906101000a900473ffffffffffffffffffffffffffffffffffffffff169050600073ffffffffffffffffffffffffffffffffffffffff168173ffffffffffffffffffffffffffffffffffffffff161415610d1b576040517f08c379a0000000000000000000000000000000000000000000000000000000008152600401610d1290612f7c565b60405180910390fd5b80915050919050565b60008073ffffffffffffffffffffffffffffffffffffffff168273ffffffffffffffffffffffffffffffffffffffff161415610d95576040517f08c379a0000000000000000000000000000000000000000000000000000000008152600401610d8c9061300e565b60405180910390fd5b600360008373ffffffffffffffffffffffffffffffffffffffff1673ffffffffffffffffffffffffffffffffffffffff168152602001908152602001600020549050919050565b610de4611439565b73ffffffffffffffffffffffffffffffffffffffff16610e02610f06565b73ffffffffffffffffffffffffffffffffffffffff1614610e58576040517f08c379a0000000000000000000000000000000000000000000000000000000008152600401610e4f9061307a565b60405180910390fd5b610e626000611968565b565b610e6c611439565b73ffffffffffffffffffffffffffffffffffffffff16610e8a610f06565b73ffffffffffffffffffffffffffffffffffffffff1614610ee0576040517f08c379a0000000000000000000000000000000000000000000000000000000008152600401610ed79061307a565b60405180910390fd5b6000610eec600a611620565b9050610ef8600a61129c565b610f028282611a2e565b5050565b6000600960009054906101000a900473ffffffffffffffffffffffffffffffffffffffff16905090565b606060018054610f3f90612a0d565b80601f0160208091040260200160405190810160405280929190818152602001828054610f6b90612a0d565b8015610fb85780601f10610f8d57610100808354040283529160200191610fb8565b820191906000526020600020905b815481529060010190602001808311610f9b57829003601f168201915b5050505050905090565b610fd4610fcd611439565b8383611a4c565b5050565b610fe9610fe3611439565b8361162e565b611028576040517f08c379a000000000000000000000000000000000000000000000000000000000815260040161101f90612eea565b60405180910390fd5b61103484848484611bb9565b50505050565b6060611044611074565b61104d83611c15565b60405160200161105e9291906130d6565b6040516020818303038152906040529050919050565b60606040518060400160405280601e81526020017f687474703a2f2f6c6f63616c686f73743a383038302f6170692f6e66742f0000815250905090565b600080600b60009054906101000a900473ffffffffffffffffffffffffffffffffffffffff1690508273ffffffffffffffffffffffffffffffffffffffff168173ffffffffffffffffffffffffffffffffffffffff1663c4552791866040518263ffffffff1660e01b815260040161112991906124a2565b602060405180830381865afa158015611146573d6000803e3d6000fd5b505050506040513d601f19601f8201168201806040525081019061116a9190613138565b73ffffffffffffffffffffffffffffffffffffffff16141561119057600191505061119e565b61119a8484611d76565b9150505b92915050565b6111ac611439565b73ffffffffffffffffffffffffffffffffffffffff166111ca610f06565b73ffffffffffffffffffffffffffffffffffffffff1614611220576040517f08c379a00000000000000000000000000000000000000000000000000000000081526004016112179061307a565b60405180910390fd5b600073ffffffffffffffffffffffffffffffffffffffff168173ffffffffffffffffffffffffffffffffffffffff161415611290576040517f08c379a0000000000000000000000000000000000000000000000000000000008152600401611287906131d7565b60405180910390fd5b61129981611968565b50565b6001816000016000828254019250508190555050565b60003073ffffffffffffffffffffffffffffffffffffffff163373ffffffffffffffffffffffffffffffffffffffff16141561135c57600080368080601f016020809104026020016040519081016040528093929190818152602001838380828437600081840152601f19601f820116905080830192505050505050509050600080369050905073ffffffffffffffffffffffffffffffffffffffff818301511692505050611360565b3390505b90565b60007f01ffc9a7000000000000000000000000000000000000000000000000000000007bffffffffffffffffffffffffffffffffffffffffffffffffffffffff1916827bffffffffffffffffffffffffffffffffffffffffffffffffffffffff1916149050919050565b60008073ffffffffffffffffffffffffffffffffffffffff166002600084815260200190815260200160002060009054906101000a900473ffffffffffffffffffffffffffffffffffffffff1673ffffffffffffffffffffffffffffffffffffffff1614159050919050565b60006114436112b2565b905090565b816004600083815260200190815260200160002060006101000a81548173ffffffffffffffffffffffffffffffffffffffff021916908373ffffffffffffffffffffffffffffffffffffffff160217905550808273ffffffffffffffffffffffffffffffffffffffff166114bb83610c72565b73ffffffffffffffffffffffffffffffffffffffff167f8c5be1e5ebec7d5bd14f71427d1e84f3dd0314c0f7b2291e5b200ac8c7c3b92560405160405180910390a45050565b60008073ffffffffffffffffffffffffffffffffffffffff168673ffffffffffffffffffffffffffffffffffffffff161415611572576040517f08c379a000000000000000000000000000000000000000000000000000000000815260040161156990613269565b60405180910390fd5b600161158561158087611e0a565b611e72565b838686604051600081526020016040526040516115a59493929190613298565b6020604051602081039080840390855afa1580156115c7573d6000803e3d6000fd5b5050506020604051035173ffffffffffffffffffffffffffffffffffffffff168673ffffffffffffffffffffffffffffffffffffffff1614905095945050505050565b6000818361161891906132dd565b905092915050565b600081600001549050919050565b6000611639826113cd565b611678576040517f08c379a000000000000000000000000000000000000000000000000000000000815260040161166f906133a5565b60405180910390fd5b600061168383610c72565b90508073ffffffffffffffffffffffffffffffffffffffff168473ffffffffffffffffffffffffffffffffffffffff1614806116f257508373ffffffffffffffffffffffffffffffffffffffff166116da8461072d565b73ffffffffffffffffffffffffffffffffffffffff16145b80611703575061170281856110b1565b5b91505092915050565b8273ffffffffffffffffffffffffffffffffffffffff1661172c82610c72565b73ffffffffffffffffffffffffffffffffffffffff1614611782576040517f08c379a000000000000000000000000000000000000000000000000000000000815260040161177990613437565b60405180910390fd5b600073ffffffffffffffffffffffffffffffffffffffff168273ffffffffffffffffffffffffffffffffffffffff1614156117f2576040517f08c379a00000000000000000000000000000000000000000000000000000000081526004016117e9906134c9565b60405180910390fd5b6117fd838383611eab565b611808600082611448565b6001600360008573ffffffffffffffffffffffffffffffffffffffff1673ffffffffffffffffffffffffffffffffffffffff16815260200190815260200160002060008282546118589190612e44565b925050819055506001600360008473ffffffffffffffffffffffffffffffffffffffff1673ffffffffffffffffffffffffffffffffffffffff16815260200190815260200160002060008282546118af91906132dd565b92505081905550816002600083815260200190815260200160002060006101000a81548173ffffffffffffffffffffffffffffffffffffffff021916908373ffffffffffffffffffffffffffffffffffffffff160217905550808273ffffffffffffffffffffffffffffffffffffffff168473ffffffffffffffffffffffffffffffffffffffff167fddf252ad1be2c89b69c2b068fc378daa952ba7f163c4a11628f55a4df523b3ef60405160405180910390a4505050565b6000600960009054906101000a900473ffffffffffffffffffffffffffffffffffffffff16905081600960006101000a81548173ffffffffffffffffffffffffffffffffffffffff021916908373ffffffffffffffffffffffffffffffffffffffff1602179055508173ffffffffffffffffffffffffffffffffffffffff168173ffffffffffffffffffffffffffffffffffffffff167f8be0079c531659141344cd1fd0a4f28419497f9722a3daafe3b4186f6b6457e060405160405180910390a35050565b611a48828260405180602001604052806000815250611eb0565b5050565b8173ffffffffffffffffffffffffffffffffffffffff168373ffffffffffffffffffffffffffffffffffffffff161415611abb576040517f08c379a0000000000000000000000000000000000000000000000000000000008152600401611ab290613535565b60405180910390fd5b80600560008573ffffffffffffffffffffffffffffffffffffffff1673ffffffffffffffffffffffffffffffffffffffff16815260200190815260200160002060008473ffffffffffffffffffffffffffffffffffffffff1673ffffffffffffffffffffffffffffffffffffffff16815260200190815260200160002060006101000a81548160ff0219169083151502179055508173ffffffffffffffffffffffffffffffffffffffff168373ffffffffffffffffffffffffffffffffffffffff167f17307eab39ab6107e8899845ad3d59bd9653f200f220920489ca2b5937696c3183604051611bac9190612328565b60405180910390a3505050565b611bc484848461170c565b611bd084848484611f0b565b611c0f576040517f08c379a0000000000000000000000000000000000000000000000000000000008152600401611c06906135c7565b60405180910390fd5b50505050565b60606000821415611c5d576040518060400160405280600181526020017f30000000000000000000000000000000000000000000000000000000000000008152509050611d71565b600082905060005b60008214611c8f578080611c78906135e7565b915050600a82611c88919061365f565b9150611c65565b60008167ffffffffffffffff811115611cab57611caa612533565b5b6040519080825280601f01601f191660200182016040528015611cdd5781602001600182028036833780820191505090505b5090505b60008514611d6a57600182611cf69190612e44565b9150600a85611d059190613690565b6030611d1191906132dd565b60f81b818381518110611d2757611d266136c1565b5b60200101907effffffffffffffffffffffffffffffffffffffffffffffffffffffffffffff1916908160001a905350600a85611d63919061365f565b9450611ce1565b8093505050505b919050565b6000600560008473ffffffffffffffffffffffffffffffffffffffff1673ffffffffffffffffffffffffffffffffffffffff16815260200190815260200160002060008373ffffffffffffffffffffffffffffffffffffffff1673ffffffffffffffffffffffffffffffffffffffff16815260200190815260200160002060009054906101000a900460ff16905092915050565b6000604051806080016040528060438152602001613940604391398051906020012082600001518360200151846040015180519060200120604051602001611e5594939291906136f0565b604051602081830303815290604052805190602001209050919050565b6000611e7c610b92565b82604051602001611e8e9291906137a2565b604051602081830303815290604052805190602001209050919050565b505050565b611eba8383612093565b611ec76000848484611f0b565b611f06576040517f08c379a0000000000000000000000000000000000000000000000000000000008152600401611efd906135c7565b60405180910390fd5b505050565b6000611f2c8473ffffffffffffffffffffffffffffffffffffffff16612261565b15612086578373ffffffffffffffffffffffffffffffffffffffff1663150b7a02611f55611439565b8786866040518563ffffffff1660e01b8152600401611f7794939291906137d9565b6020604051808303816000875af1925050508015611fb357506040513d601f19601f82011682018060405250810190611fb0919061383a565b60015b612036573d8060008114611fe3576040519150601f19603f3d011682016040523d82523d6000602084013e611fe8565b606091505b5060008151141561202e576040517f08c379a0000000000000000000000000000000000000000000000000000000008152600401612025906135c7565b60405180910390fd5b805181602001fd5b63150b7a0260e01b7bffffffffffffffffffffffffffffffffffffffffffffffffffffffff1916817bffffffffffffffffffffffffffffffffffffffffffffffffffffffff19161491505061208b565b600190505b949350505050565b600073ffffffffffffffffffffffffffffffffffffffff168273ffffffffffffffffffffffffffffffffffffffff161415612103576040517f08c379a00000000000000000000000000000000000000000000000000000000081526004016120fa906138b3565b60405180910390fd5b61210c816113cd565b1561214c576040517f08c379a00000000000000000000000000000000000000000000000000000000081526004016121439061391f565b60405180910390fd5b61215860008383611eab565b6001600360008473ffffffffffffffffffffffffffffffffffffffff1673ffffffffffffffffffffffffffffffffffffffff16815260200190815260200160002060008282546121a891906132dd565b92505081905550816002600083815260200190815260200160002060006101000a81548173ffffffffffffffffffffffffffffffffffffffff021916908373ffffffffffffffffffffffffffffffffffffffff160217905550808273ffffffffffffffffffffffffffffffffffffffff16600073ffffffffffffffffffffffffffffffffffffffff167fddf252ad1be2c89b69c2b068fc378daa952ba7f163c4a11628f55a4df523b3ef60405160405180910390a45050565b600080823b905060008111915050919050565b6000604051905090565b600080fd5b600080fd5b60007fffffffff0000000000000000000000000000000000000000000000000000000082169050919050565b6122bd81612288565b81146122c857600080fd5b50565b6000813590506122da816122b4565b92915050565b6000602082840312156122f6576122f561227e565b5b6000612304848285016122cb565b91505092915050565b60008115159050919050565b6123228161230d565b82525050565b600060208201905061233d6000830184612319565b92915050565b600081519050919050565b600082825260208201905092915050565b60005b8381101561237d578082015181840152602081019050612362565b8381111561238c576000848401525b50505050565b6000601f19601f8301169050919050565b60006123ae82612343565b6123b8818561234e565b93506123c881856020860161235f565b6123d181612392565b840191505092915050565b600060208201905081810360008301526123f681846123a3565b905092915050565b6000819050919050565b612411816123fe565b811461241c57600080fd5b50565b60008135905061242e81612408565b92915050565b60006020828403121561244a5761244961227e565b5b60006124588482850161241f565b91505092915050565b600073ffffffffffffffffffffffffffffffffffffffff82169050919050565b600061248c82612461565b9050919050565b61249c81612481565b82525050565b60006020820190506124b76000830184612493565b92915050565b6124c681612481565b81146124d157600080fd5b50565b6000813590506124e3816124bd565b92915050565b60008060408385031215612500576124ff61227e565b5b600061250e858286016124d4565b925050602061251f8582860161241f565b9150509250929050565b600080fd5b600080fd5b7f4e487b7100000000000000000000000000000000000000000000000000000000600052604160045260246000fd5b61256b82612392565b810181811067ffffffffffffffff8211171561258a57612589612533565b5b80604052505050565b600061259d612274565b90506125a98282612562565b919050565b600067ffffffffffffffff8211156125c9576125c8612533565b5b6125d282612392565b9050602081019050919050565b82818337600083830152505050565b60006126016125fc846125ae565b612593565b90508281526020810184848401111561261d5761261c61252e565b5b6126288482856125df565b509392505050565b600082601f83011261264557612644612529565b5b81356126558482602086016125ee565b91505092915050565b6000819050919050565b6126718161265e565b811461267c57600080fd5b50565b60008135905061268e81612668565b92915050565b600060ff82169050919050565b6126aa81612694565b81146126b557600080fd5b50565b6000813590506126c7816126a1565b92915050565b600080600080600060a086880312156126e9576126e861227e565b5b60006126f7888289016124d4565b955050602086013567ffffffffffffffff81111561271857612717612283565b5b61272488828901612630565b94505060406127358882890161267f565b93505060606127468882890161267f565b9250506080612757888289016126b8565b9150509295509295909350565b600081519050919050565b600082825260208201905092915050565b600061278b82612764565b612795818561276f565b93506127a581856020860161235f565b6127ae81612392565b840191505092915050565b600060208201905081810360008301526127d38184612780565b905092915050565b6127e4816123fe565b82525050565b60006020820190506127ff60008301846127db565b92915050565b61280e8161265e565b82525050565b60006020820190506128296000830184612805565b92915050565b6000806000606084860312156128485761284761227e565b5b6000612856868287016124d4565b9350506020612867868287016124d4565b92505060406128788682870161241f565b9150509250925092565b6000602082840312156128985761289761227e565b5b60006128a6848285016124d4565b91505092915050565b6128b88161230d565b81146128c357600080fd5b50565b6000813590506128d5816128af565b92915050565b600080604083850312156128f2576128f161227e565b5b6000612900858286016124d4565b9250506020612911858286016128c6565b9150509250929050565b600080600080608085870312156129355761293461227e565b5b6000612943878288016124d4565b9450506020612954878288016124d4565b93505060406129658782880161241f565b925050606085013567ffffffffffffffff81111561298657612985612283565b5b61299287828801612630565b91505092959194509250565b600080604083850312156129b5576129b461227e565b5b60006129c3858286016124d4565b92505060206129d4858286016124d4565b9150509250929050565b7f4e487b7100000000000000000000000000000000000000000000000000000000600052602260045260246000fd5b60006002820490506001821680612a2557607f821691505b60208210811415612a3957612a386129de565b5b50919050565b7f4552433732313a20617070726f76656420717565727920666f72206e6f6e657860008201527f697374656e7420746f6b656e0000000000000000000000000000000000000000602082015250565b6000612a9b602c8361234e565b9150612aa682612a3f565b604082019050919050565b60006020820190508181036000830152612aca81612a8e565b9050919050565b7f4552433732313a20617070726f76616c20746f2063757272656e74206f776e6560008201527f7200000000000000000000000000000000000000000000000000000000000000602082015250565b6000612b2d60218361234e565b9150612b3882612ad1565b604082019050919050565b60006020820190508181036000830152612b5c81612b20565b9050919050565b7f4552433732313a20617070726f76652063616c6c6572206973206e6f74206f7760008201527f6e6572206e6f7220617070726f76656420666f7220616c6c0000000000000000602082015250565b6000612bbf60388361234e565b9150612bca82612b63565b604082019050919050565b60006020820190508181036000830152612bee81612bb2565b9050919050565b7f5369676e657220616e64207369676e617475726520646f206e6f74206d61746360008201527f6800000000000000000000000000000000000000000000000000000000000000602082015250565b6000612c5160218361234e565b9150612c5c82612bf5565b604082019050919050565b60006020820190508181036000830152612c8081612c44565b9050919050565b6000612c9282612461565b9050919050565b612ca281612c87565b82525050565b6000606082019050612cbd6000830186612493565b612cca6020830185612c99565b8181036040830152612cdc8184612780565b9050949350505050565b600081905092915050565b6000612cfc82612764565b612d068185612ce6565b9350612d1681856020860161235f565b80840191505092915050565b60008160601b9050919050565b6000612d3a82612d22565b9050919050565b6000612d4c82612d2f565b9050919050565b612d64612d5f82612481565b612d41565b82525050565b6000612d768285612cf1565b9150612d828284612d53565b6014820191508190509392505050565b6000612d9e8284612cf1565b915081905092915050565b7f46756e6374696f6e2063616c6c206e6f74207375636365737366756c00000000600082015250565b6000612ddf601c8361234e565b9150612dea82612da9565b602082019050919050565b60006020820190508181036000830152612e0e81612dd2565b9050919050565b7f4e487b7100000000000000000000000000000000000000000000000000000000600052601160045260246000fd5b6000612e4f826123fe565b9150612e5a836123fe565b925082821015612e6d57612e6c612e15565b5b828203905092915050565b7f4552433732313a207472616e736665722063616c6c6572206973206e6f74206f60008201527f776e6572206e6f7220617070726f766564000000000000000000000000000000602082015250565b6000612ed460318361234e565b9150612edf82612e78565b604082019050919050565b60006020820190508181036000830152612f0381612ec7565b9050919050565b7f4552433732313a206f776e657220717565727920666f72206e6f6e657869737460008201527f656e7420746f6b656e0000000000000000000000000000000000000000000000602082015250565b6000612f6660298361234e565b9150612f7182612f0a565b604082019050919050565b60006020820190508181036000830152612f9581612f59565b9050919050565b7f4552433732313a2062616c616e636520717565727920666f7220746865207a6560008201527f726f206164647265737300000000000000000000000000000000000000000000602082015250565b6000612ff8602a8361234e565b915061300382612f9c565b604082019050919050565b6000602082019050818103600083015261302781612feb565b9050919050565b7f4f776e61626c653a2063616c6c6572206973206e6f7420746865206f776e6572600082015250565b600061306460208361234e565b915061306f8261302e565b602082019050919050565b6000602082019050818103600083015261309381613057565b9050919050565b600081905092915050565b60006130b082612343565b6130ba818561309a565b93506130ca81856020860161235f565b80840191505092915050565b60006130e282856130a5565b91506130ee82846130a5565b91508190509392505050565b600061310582612481565b9050919050565b613115816130fa565b811461312057600080fd5b50565b6000815190506131328161310c565b92915050565b60006020828403121561314e5761314d61227e565b5b600061315c84828501613123565b91505092915050565b7f4f776e61626c653a206e6577206f776e657220697320746865207a65726f206160008201527f6464726573730000000000000000000000000000000000000000000000000000602082015250565b60006131c160268361234e565b91506131cc82613165565b604082019050919050565b600060208201905081810360008301526131f0816131b4565b9050919050565b7f4e61746976654d6574615472616e73616374696f6e3a20494e56414c49445f5360008201527f49474e4552000000000000000000000000000000000000000000000000000000602082015250565b600061325360258361234e565b915061325e826131f7565b604082019050919050565b6000602082019050818103600083015261328281613246565b9050919050565b61329281612694565b82525050565b60006080820190506132ad6000830187612805565b6132ba6020830186613289565b6132c76040830185612805565b6132d46060830184612805565b95945050505050565b60006132e8826123fe565b91506132f3836123fe565b9250827fffffffffffffffffffffffffffffffffffffffffffffffffffffffffffffffff0382111561332857613327612e15565b5b828201905092915050565b7f4552433732313a206f70657261746f7220717565727920666f72206e6f6e657860008201527f697374656e7420746f6b656e0000000000000000000000000000000000000000602082015250565b600061338f602c8361234e565b915061339a82613333565b604082019050919050565b600060208201905081810360008301526133be81613382565b9050919050565b7f4552433732313a207472616e73666572206f6620746f6b656e2074686174206960008201527f73206e6f74206f776e0000000000000000000000000000000000000000000000602082015250565b600061342160298361234e565b915061342c826133c5565b604082019050919050565b6000602082019050818103600083015261345081613414565b9050919050565b7f4552433732313a207472616e7366657220746f20746865207a65726f2061646460008201527f7265737300000000000000000000000000000000000000000000000000000000602082015250565b60006134b360248361234e565b91506134be82613457565b604082019050919050565b600060208201905081810360008301526134e2816134a6565b9050919050565b7f4552433732313a20617070726f766520746f2063616c6c657200000000000000600082015250565b600061351f60198361234e565b915061352a826134e9565b602082019050919050565b6000602082019050818103600083015261354e81613512565b9050919050565b7f4552433732313a207472616e7366657220746f206e6f6e20455243373231526560008201527f63656976657220696d706c656d656e7465720000000000000000000000000000602082015250565b60006135b160328361234e565b91506135bc82613555565b604082019050919050565b600060208201905081810360008301526135e0816135a4565b9050919050565b60006135f2826123fe565b91507fffffffffffffffffffffffffffffffffffffffffffffffffffffffffffffffff82141561362557613624612e15565b5b600182019050919050565b7f4e487b7100000000000000000000000000000000000000000000000000000000600052601260045260246000fd5b600061366a826123fe565b9150613675836123fe565b92508261368557613684613630565b5b828204905092915050565b600061369b826123fe565b91506136a6836123fe565b9250826136b6576136b5613630565b5b828206905092915050565b7f4e487b7100000000000000000000000000000000000000000000000000000000600052603260045260246000fd5b60006080820190506137056000830187612805565b61371260208301866127db565b61371f6040830185612493565b61372c6060830184612805565b95945050505050565b7f1901000000000000000000000000000000000000000000000000000000000000600082015250565b600061376b60028361309a565b915061377682613735565b600282019050919050565b6000819050919050565b61379c6137978261265e565b613781565b82525050565b60006137ad8261375e565b91506137b9828561378b565b6020820191506137c9828461378b565b6020820191508190509392505050565b60006080820190506137ee6000830187612493565b6137fb6020830186612493565b61380860408301856127db565b818103606083015261381a8184612780565b905095945050505050565b600081519050613834816122b4565b92915050565b6000602082840312156138505761384f61227e565b5b600061385e84828501613825565b91505092915050565b7f4552433732313a206d696e7420746f20746865207a65726f2061646472657373600082015250565b600061389d60208361234e565b91506138a882613867565b602082019050919050565b600060208201905081810360008301526138cc81613890565b9050919050565b7f4552433732313a20746f6b656e20616c7265616479206d696e74656400000000600082015250565b6000613909601c8361234e565b9150613914826138d3565b602082019050919050565b60006020820190508181036000830152613938816138fc565b905091905056fe4d6574615472616e73616374696f6e2875696e74323536206e6f6e63652c616464726573732066726f6d2c62797465732066756e6374696f6e5369676e617475726529a2646970667358221220ff57b6c8054eed06f7206bb45398ad446f5f5a84d5690466d5f00c70e0706e7964736f6c634300080b0033454950373132446f6d61696e28737472696e67206e616d652c737472696e672076657273696f6e2c6164647265737320766572696679696e67436f6e74726163742c627974657333322073616c7429",
  "devdoc": {
    "kind": "dev",
    "methods": {
      "approve(address,uint256)": {
        "details": "See {IERC721-approve}."
      },
      "balanceOf(address)": {
        "details": "See {IERC721-balanceOf}."
      },
      "getApproved(uint256)": {
        "details": "See {IERC721-getApproved}."
      },
      "mintTo(address)": {
        "details": "Mints a token to an address with a tokenURI.",
        "params": {
          "_to": "address of the future owner of the token"
        }
      },
      "name()": {
        "details": "See {IERC721Metadata-name}."
      },
      "owner()": {
        "details": "Returns the address of the current owner."
      },
      "ownerOf(uint256)": {
        "details": "See {IERC721-ownerOf}."
      },
      "renounceOwnership()": {
        "details": "Leaves the contract without owner. It will not be possible to call `onlyOwner` functions anymore. Can only be called by the current owner. NOTE: Renouncing ownership will leave the contract without an owner, thereby removing any functionality that is only available to the owner."
      },
      "safeTransferFrom(address,address,uint256)": {
        "details": "See {IERC721-safeTransferFrom}."
      },
      "safeTransferFrom(address,address,uint256,bytes)": {
        "details": "See {IERC721-safeTransferFrom}."
      },
      "setApprovalForAll(address,bool)": {
        "details": "See {IERC721-setApprovalForAll}."
      },
      "supportsInterface(bytes4)": {
        "details": "See {IERC165-supportsInterface}."
      },
      "symbol()": {
        "details": "See {IERC721Metadata-symbol}."
      },
      "totalSupply()": {
        "details": "Returns the total tokens minted so far. 1 is always subtracted from the Counter since it tracks the next available tokenId."
      },
      "transferFrom(address,address,uint256)": {
        "details": "See {IERC721-transferFrom}."
      },
      "transferOwnership(address)": {
        "details": "Transfers ownership of the contract to a new account (`newOwner`). Can only be called by the current owner."
      }
    },
    "title": "TestNFT TestNFT - a contract for a non-fungible token",
    "version": 1
  },
  "userdoc": {
    "kind": "user",
    "methods": {
      "isApprovedForAll(address,address)": {
        "notice": "Override isApprovedForAll to whitelist user's OpenSea proxy accounts to enable gas-less listings."
      }
    },
    "version": 1
  },
  "storageLayout": {
    "storage": [
      {
        "astId": 130,
        "contract": "contracts/TestNFT.sol:TestNFT",
        "label": "_name",
        "offset": 0,
        "slot": "0",
        "type": "t_string_storage"
      },
      {
        "astId": 132,
        "contract": "contracts/TestNFT.sol:TestNFT",
        "label": "_symbol",
        "offset": 0,
        "slot": "1",
        "type": "t_string_storage"
      },
      {
        "astId": 136,
        "contract": "contracts/TestNFT.sol:TestNFT",
        "label": "_owners",
        "offset": 0,
        "slot": "2",
        "type": "t_mapping(t_uint256,t_address)"
      },
      {
        "astId": 140,
        "contract": "contracts/TestNFT.sol:TestNFT",
        "label": "_balances",
        "offset": 0,
        "slot": "3",
        "type": "t_mapping(t_address,t_uint256)"
      },
      {
        "astId": 144,
        "contract": "contracts/TestNFT.sol:TestNFT",
        "label": "_tokenApprovals",
        "offset": 0,
        "slot": "4",
        "type": "t_mapping(t_uint256,t_address)"
      },
      {
        "astId": 150,
        "contract": "contracts/TestNFT.sol:TestNFT",
        "label": "_operatorApprovals",
        "offset": 0,
        "slot": "5",
        "type": "t_mapping(t_address,t_mapping(t_address,t_bool))"
      },
      {
        "astId": 2413,
        "contract": "contracts/TestNFT.sol:TestNFT",
        "label": "inited",
        "offset": 0,
        "slot": "6",
        "type": "t_bool"
      },
      {
        "astId": 2320,
        "contract": "contracts/TestNFT.sol:TestNFT",
        "label": "domainSeperator",
        "offset": 0,
        "slot": "7",
        "type": "t_bytes32"
      },
      {
        "astId": 2459,
        "contract": "contracts/TestNFT.sol:TestNFT",
        "label": "nonces",
        "offset": 0,
        "slot": "8",
        "type": "t_mapping(t_address,t_uint256)"
      },
      {
        "astId": 7,
        "contract": "contracts/TestNFT.sol:TestNFT",
        "label": "_owner",
        "offset": 0,
        "slot": "9",
        "type": "t_address"
      },
      {
        "astId": 2077,
        "contract": "contracts/TestNFT.sol:TestNFT",
        "label": "_nextTokenId",
        "offset": 0,
        "slot": "10",
        "type": "t_struct(Counter)1421_storage"
      },
      {
        "astId": 2079,
        "contract": "contracts/TestNFT.sol:TestNFT",
        "label": "proxyRegistryAddress",
        "offset": 0,
        "slot": "11",
        "type": "t_address"
      }
    ],
    "types": {
      "t_address": {
        "encoding": "inplace",
        "label": "address",
        "numberOfBytes": "20"
      },
      "t_bool": {
        "encoding": "inplace",
        "label": "bool",
        "numberOfBytes": "1"
      },
      "t_bytes32": {
        "encoding": "inplace",
        "label": "bytes32",
        "numberOfBytes": "32"
      },
      "t_mapping(t_address,t_bool)": {
        "encoding": "mapping",
        "key": "t_address",
        "label": "mapping(address => bool)",
        "numberOfBytes": "32",
        "value": "t_bool"
      },
      "t_mapping(t_address,t_mapping(t_address,t_bool))": {
        "encoding": "mapping",
        "key": "t_address",
        "label": "mapping(address => mapping(address => bool))",
        "numberOfBytes": "32",
        "value": "t_mapping(t_address,t_bool)"
      },
      "t_mapping(t_address,t_uint256)": {
        "encoding": "mapping",
        "key": "t_address",
        "label": "mapping(address => uint256)",
        "numberOfBytes": "32",
        "value": "t_uint256"
      },
      "t_mapping(t_uint256,t_address)": {
        "encoding": "mapping",
        "key": "t_uint256",
        "label": "mapping(uint256 => address)",
        "numberOfBytes": "32",
        "value": "t_address"
      },
      "t_string_storage": {
        "encoding": "bytes",
        "label": "string",
        "numberOfBytes": "32"
      },
      "t_struct(Counter)1421_storage": {
        "encoding": "inplace",
        "label": "struct Counters.Counter",
        "members": [
          {
            "astId": 1420,
            "contract": "contracts/TestNFT.sol:TestNFT",
            "label": "_value",
            "offset": 0,
            "slot": "0",
            "type": "t_uint256"
          }
        ],
        "numberOfBytes": "32"
      },
      "t_uint256": {
        "encoding": "inplace",
        "label": "uint256",
        "numberOfBytes": "32"
      }
    }
  }
}