{
  "address": "0xDa224512DC0abaDe5e87873981a7a564142C3427",
  "abi": [
    {
      "inputs": [
        {
          "internalType": "address",
          "name": "_proxyRegistryAddress",
          "type": "address"
        }
      ],
      "stateMutability": "nonpayable",
      "type": "constructor"
    },
    {
      "anonymous": false,
      "inputs": [
        {
          "indexed": true,
          "internalType": "address",
          "name": "owner",
          "type": "address"
        },
        {
          "indexed": true,
          "internalType": "address",
          "name": "approved",
          "type": "address"
        },
        {
          "indexed": true,
          "internalType": "uint256",
          "name": "tokenId",
          "type": "uint256"
        }
      ],
      "name": "Approval",
      "type": "event"
    },
    {
      "anonymous": false,
      "inputs": [
        {
          "indexed": true,
          "internalType": "address",
          "name": "owner",
          "type": "address"
        },
        {
          "indexed": true,
          "internalType": "address",
          "name": "operator",
          "type": "address"
        },
        {
          "indexed": false,
          "internalType": "bool",
          "name": "approved",
          "type": "bool"
        }
      ],
      "name": "ApprovalForAll",
      "type": "event"
    },
    {
      "anonymous": false,
      "inputs": [
        {
          "indexed": false,
          "internalType": "address",
          "name": "userAddress",
          "type": "address"
        },
        {
          "indexed": false,
          "internalType": "address payable",
          "name": "relayerAddress",
          "type": "address"
        },
        {
          "indexed": false,
          "internalType": "bytes",
          "name": "functionSignature",
          "type": "bytes"
        }
      ],
      "name": "MetaTransactionExecuted",
      "type": "event"
    },
    {
      "anonymous": false,
      "inputs": [
        {
          "indexed": true,
          "internalType": "address",
          "name": "previousOwner",
          "type": "address"
        },
        {
          "indexed": true,
          "internalType": "address",
          "name": "newOwner",
          "type": "address"
        }
      ],
      "name": "OwnershipTransferred",
      "type": "event"
    },
    {
      "anonymous": false,
      "inputs": [
        {
          "indexed": true,
          "internalType": "address",
          "name": "from",
          "type": "address"
        },
        {
          "indexed": true,
          "internalType": "address",
          "name": "to",
          "type": "address"
        },
        {
          "indexed": true,
          "internalType": "uint256",
          "name": "tokenId",
          "type": "uint256"
        }
      ],
      "name": "Transfer",
      "type": "event"
    },
    {
      "inputs": [],
      "name": "ERC712_VERSION",
      "outputs": [
        {
          "internalType": "string",
          "name": "",
          "type": "string"
        }
      ],
      "stateMutability": "view",
      "type": "function"
    },
    {
      "inputs": [
        {
          "internalType": "address",
          "name": "to",
          "type": "address"
        },
        {
          "internalType": "uint256",
          "name": "tokenId",
          "type": "uint256"
        }
      ],
      "name": "approve",
      "outputs": [],
      "stateMutability": "nonpayable",
      "type": "function"
    },
    {
      "inputs": [
        {
          "internalType": "address",
          "name": "owner",
          "type": "address"
        }
      ],
      "name": "balanceOf",
      "outputs": [
        {
          "internalType": "uint256",
          "name": "",
          "type": "uint256"
        }
      ],
      "stateMutability": "view",
      "type": "function"
    },
    {
      "inputs": [],
      "name": "baseTokenURI",
      "outputs": [
        {
          "internalType": "string",
          "name": "",
          "type": "string"
        }
      ],
      "stateMutability": "pure",
      "type": "function"
    },
    {
      "inputs": [
        {
          "internalType": "address",
          "name": "userAddress",
          "type": "address"
        },
        {
          "internalType": "bytes",
          "name": "functionSignature",
          "type": "bytes"
        },
        {
          "internalType": "bytes32",
          "name": "sigR",
          "type": "bytes32"
        },
        {
          "internalType": "bytes32",
          "name": "sigS",
          "type": "bytes32"
        },
        {
          "internalType": "uint8",
          "name": "sigV",
          "type": "uint8"
        }
      ],
      "name": "executeMetaTransaction",
      "outputs": [
        {
          "internalType": "bytes",
          "name": "",
          "type": "bytes"
        }
      ],
      "stateMutability": "payable",
      "type": "function"
    },
    {
      "inputs": [
        {
          "internalType": "uint256",
          "name": "tokenId",
          "type": "uint256"
        }
      ],
      "name": "getApproved",
      "outputs": [
        {
          "internalType": "address",
          "name": "",
          "type": "address"
        }
      ],
      "stateMutability": "view",
      "type": "function"
    },
    {
      "inputs": [],
      "name": "getChainId",
      "outputs": [
        {
          "internalType": "uint256",
          "name": "",
          "type": "uint256"
        }
      ],
      "stateMutability": "view",
      "type": "function"
    },
    {
      "inputs": [],
      "name": "getDomainSeperator",
      "outputs": [
        {
          "internalType": "bytes32",
          "name": "",
          "type": "bytes32"
        }
      ],
      "stateMutability": "view",
      "type": "function"
    },
    {
      "inputs": [
        {
          "internalType": "address",
          "name": "user",
          "type": "address"
        }
      ],
      "name": "getNonce",
      "outputs": [
        {
          "internalType": "uint256",
          "name": "nonce",
          "type": "uint256"
        }
      ],
      "stateMutability": "view",
      "type": "function"
    },
    {
      "inputs": [
        {
          "internalType": "address",
          "name": "owner",
          "type": "address"
        },
        {
          "internalType": "address",
          "name": "operator",
          "type": "address"
        }
      ],
      "name": "isApprovedForAll",
      "outputs": [
        {
          "internalType": "bool",
          "name": "",
          "type": "bool"
        }
      ],
      "stateMutability": "view",
      "type": "function"
    },
    {
      "inputs": [
        {
          "internalType": "address",
          "name": "_to",
          "type": "address"
        }
      ],
      "name": "mintTo",
      "outputs": [],
      "stateMutability": "nonpayable",
      "type": "function"
    },
    {
      "inputs": [],
      "name": "name",
      "outputs": [
        {
          "internalType": "string",
          "name": "",
          "type": "string"
        }
      ],
      "stateMutability": "view",
      "type": "function"
    },
    {
      "inputs": [],
      "name": "owner",
      "outputs": [
        {
          "internalType": "address",
          "name": "",
          "type": "address"
        }
      ],
      "stateMutability": "view",
      "type": "function"
    },
    {
      "inputs": [
        {
          "internalType": "uint256",
          "name": "tokenId",
          "type": "uint256"
        }
      ],
      "name": "ownerOf",
      "outputs": [
        {
          "internalType": "address",
          "name": "",
          "type": "address"
        }
      ],
      "stateMutability": "view",
      "type": "function"
    },
    {
      "inputs": [],
      "name": "renounceOwnership",
      "outputs": [],
      "stateMutability": "nonpayable",
      "type": "function"
    },
    {
      "inputs": [
        {
          "internalType": "address",
          "name": "from",
          "type": "address"
        },
        {
          "internalType": "address",
          "name": "to",
          "type": "address"
        },
        {
          "internalType": "uint256",
          "name": "tokenId",
          "type": "uint256"
        }
      ],
      "name": "safeTransferFrom",
      "outputs": [],
      "stateMutability": "nonpayable",
      "type": "function"
    },
    {
      "inputs": [
        {
          "internalType": "address",
          "name": "from",
          "type": "address"
        },
        {
          "internalType": "address",
          "name": "to",
          "type": "address"
        },
        {
          "internalType": "uint256",
          "name": "tokenId",
          "type": "uint256"
        },
        {
          "internalType": "bytes",
          "name": "_data",
          "type": "bytes"
        }
      ],
      "name": "safeTransferFrom",
      "outputs": [],
      "stateMutability": "nonpayable",
      "type": "function"
    },
    {
      "inputs": [
        {
          "internalType": "address",
          "name": "operator",
          "type": "address"
        },
        {
          "internalType": "bool",
          "name": "approved",
          "type": "bool"
        }
      ],
      "name": "setApprovalForAll",
      "outputs": [],
      "stateMutability": "nonpayable",
      "type": "function"
    },
    {
      "inputs": [
        {
          "internalType": "bytes4",
          "name": "interfaceId",
          "type": "bytes4"
        }
      ],
      "name": "supportsInterface",
      "outputs": [
        {
          "internalType": "bool",
          "name": "",
          "type": "bool"
        }
      ],
      "stateMutability": "view",
      "type": "function"
    },
    {
      "inputs": [],
      "name": "symbol",
      "outputs": [
        {
          "internalType": "string",
          "name": "",
          "type": "string"
        }
      ],
      "stateMutability": "view",
      "type": "function"
    },
    {
      "inputs": [
        {
          "internalType": "uint256",
          "name": "_tokenId",
          "type": "uint256"
        }
      ],
      "name": "tokenURI",
      "outputs": [
        {
          "internalType": "string",
          "name": "",
          "type": "string"
        }
      ],
      "stateMutability": "pure",
      "type": "function"
    },
    {
      "inputs": [],
      "name": "totalSupply",
      "outputs": [
        {
          "internalType": "uint256",
          "name": "",
          "type": "uint256"
        }
      ],
      "stateMutability": "view",
      "type": "function"
    },
    {
      "inputs": [
        {
          "internalType": "address",
          "name": "from",
          "type": "address"
        },
        {
          "internalType": "address",
          "name": "to",
          "type": "address"
        },
        {
          "internalType": "uint256",
          "name": "tokenId",
          "type": "uint256"
        }
      ],
      "name": "transferFrom",
      "outputs": [],
      "stateMutability": "nonpayable",
      "type": "function"
    },
    {
      "inputs": [
        {
          "internalType": "address",
          "name": "newOwner",
          "type": "address"
        }
      ],
      "name": "transferOwnership",
      "outputs": [],
      "stateMutability": "nonpayable",
      "type": "function"
    }
  ],
  "transactionHash": "0xcc09cab0a1f91ba064002664bd71f74b100d5b6f23b9da667a3ab05c579a3c1b",
  "args": [
    "0x0000000000000000000000000000000000000000"
  ],
  "numDeployments": 1,
  "solcInputHash": "4f15ddbd217a19c8b53557e6973f2921",
  "bytecode": "0x60806040526000600660006101000a81548160ff0219169083151502179055503480156200002c57600080fd5b50604051620041503803806200415083398181016040528101906200005291906200058b565b6040518060400160405280600781526020017f546573744e4654000000000000000000000000000000000000000000000000008152506040518060400160405280600481526020017f544e4654000000000000000000000000000000000000000000000000000000008152508282828160009080519060200190620000d992919062000471565b508060019080519060200190620000f292919062000471565b50505062000115620001096200018860201b60201c565b620001a460201b60201c565b80600b60006101000a81548173ffffffffffffffffffffffffffffffffffffffff021916908373ffffffffffffffffffffffffffffffffffffffff1602179055506200016d600a6200026a60201b6200127f1760201c565b6200017e836200028060201b60201c565b505050506200072e565b60006200019f6200030260201b620012951760201c565b905090565b6000600960009054906101000a900473ffffffffffffffffffffffffffffffffffffffff16905081600960006101000a81548173ffffffffffffffffffffffffffffffffffffffff021916908373ffffffffffffffffffffffffffffffffffffffff1602179055508173ffffffffffffffffffffffffffffffffffffffff168173ffffffffffffffffffffffffffffffffffffffff167f8be0079c531659141344cd1fd0a4f28419497f9722a3daafe3b4186f6b6457e060405160405180910390a35050565b6001816000016000828254019250508190555050565b600660009054906101000a900460ff1615620002d3576040517f08c379a0000000000000000000000000000000000000000000000000000000008152600401620002ca906200061e565b60405180910390fd5b620002e481620003b560201b60201c565b6001600660006101000a81548160ff02191690831515021790555050565b60003073ffffffffffffffffffffffffffffffffffffffff163373ffffffffffffffffffffffffffffffffffffffff161415620003ae57600080368080601f016020809104026020016040519081016040528093929190818152602001838380828437600081840152601f19601f820116905080830192505050505050509050600080369050905073ffffffffffffffffffffffffffffffffffffffff818301511692505050620003b2565b3390505b90565b6040518060800160405280604f815260200162004101604f91398051906020012081805190602001206040518060400160405280600181526020017f310000000000000000000000000000000000000000000000000000000000000081525080519060200120306200042c6200046460201b60201c565b60001b604051602001620004459594939291906200066c565b6040516020818303038152906040528051906020012060078190555050565b6000804690508091505090565b8280546200047f90620006f8565b90600052602060002090601f016020900481019282620004a35760008555620004ef565b82601f10620004be57805160ff1916838001178555620004ef565b82800160010185558215620004ef579182015b82811115620004ee578251825591602001919060010190620004d1565b5b509050620004fe919062000502565b5090565b5b808211156200051d57600081600090555060010162000503565b5090565b600080fd5b600073ffffffffffffffffffffffffffffffffffffffff82169050919050565b6000620005538262000526565b9050919050565b620005658162000546565b81146200057157600080fd5b50565b60008151905062000585816200055a565b92915050565b600060208284031215620005a457620005a362000521565b5b6000620005b48482850162000574565b91505092915050565b600082825260208201905092915050565b7f616c726561647920696e69746564000000000000000000000000000000000000600082015250565b600062000606600e83620005bd565b91506200061382620005ce565b602082019050919050565b600060208201905081810360008301526200063981620005f7565b9050919050565b6000819050919050565b620006558162000640565b82525050565b620006668162000546565b82525050565b600060a0820190506200068360008301886200064a565b6200069260208301876200064a565b620006a160408301866200064a565b620006b060608301856200065b565b620006bf60808301846200064a565b9695505050505050565b7f4e487b7100000000000000000000000000000000000000000000000000000000600052602260045260246000fd5b600060028204905060018216806200071157607f821691505b60208210811415620007285762000727620006c9565b5b50919050565b6139c3806200073e6000396000f3fe60806040526004361061014b5760003560e01c80636352211e116100b6578063a22cb4651161006f578063a22cb46514610499578063b88d4fde146104c2578063c87b56dd146104eb578063d547cfb714610528578063e985e9c514610553578063f2fde38b146105905761014b565b80636352211e1461038957806370a08231146103c6578063715018a614610403578063755edd171461041a5780638da5cb5b1461044357806395d89b411461046e5761014b565b806318160ddd1161010857806318160ddd1461027957806320379ee5146102a457806323b872dd146102cf5780632d0335ab146102f85780633408e4701461033557806342842e0e146103605761014b565b806301ffc9a71461015057806306fdde031461018d578063081812fc146101b8578063095ea7b3146101f55780630c53c51c1461021e5780630f7e59701461024e575b600080fd5b34801561015c57600080fd5b50610177600480360381019061017291906122c3565b6105b9565b604051610184919061230b565b60405180910390f35b34801561019957600080fd5b506101a261069b565b6040516101af91906123bf565b60405180910390f35b3480156101c457600080fd5b506101df60048036038101906101da9190612417565b61072d565b6040516101ec9190612485565b60405180910390f35b34801561020157600080fd5b5061021c600480360381019061021791906124cc565b6107b2565b005b610238600480360381019061023391906126b0565b6108ca565b604051610245919061279c565b60405180910390f35b34801561025a57600080fd5b50610263610b3c565b60405161027091906123bf565b60405180910390f35b34801561028557600080fd5b5061028e610b75565b60405161029b91906127cd565b60405180910390f35b3480156102b057600080fd5b506102b9610b92565b6040516102c691906127f7565b60405180910390f35b3480156102db57600080fd5b506102f660048036038101906102f19190612812565b610b9c565b005b34801561030457600080fd5b5061031f600480360381019061031a9190612865565b610bfc565b60405161032c91906127cd565b60405180910390f35b34801561034157600080fd5b5061034a610c45565b60405161035791906127cd565b60405180910390f35b34801561036c57600080fd5b5061038760048036038101906103829190612812565b610c52565b005b34801561039557600080fd5b506103b060048036038101906103ab9190612417565b610c72565b6040516103bd9190612485565b60405180910390f35b3480156103d257600080fd5b506103ed60048036038101906103e89190612865565b610d24565b6040516103fa91906127cd565b60405180910390f35b34801561040f57600080fd5b50610418610ddc565b005b34801561042657600080fd5b50610441600480360381019061043c9190612865565b610e64565b005b34801561044f57600080fd5b50610458610f06565b6040516104659190612485565b60405180910390f35b34801561047a57600080fd5b50610483610f30565b60405161049091906123bf565b60405180910390f35b3480156104a557600080fd5b506104c060048036038101906104bb91906128be565b610fc2565b005b3480156104ce57600080fd5b506104e960048036038101906104e491906128fe565b610fd8565b005b3480156104f757600080fd5b50610512600480360381019061050d9190612417565b61103a565b60405161051f91906123bf565b60405180910390f35b34801561053457600080fd5b5061053d611074565b60405161054a91906123bf565b60405180910390f35b34801561055f57600080fd5b5061057a60048036038101906105759190612981565b611094565b604051610587919061230b565b60405180910390f35b34801561059c57600080fd5b506105b760048036038101906105b29190612865565b611187565b005b60007f80ac58cd000000000000000000000000000000000000000000000000000000007bffffffffffffffffffffffffffffffffffffffffffffffffffffffff1916827bffffffffffffffffffffffffffffffffffffffffffffffffffffffff1916148061068457507f5b5e139f000000000000000000000000000000000000000000000000000000007bffffffffffffffffffffffffffffffffffffffffffffffffffffffff1916827bffffffffffffffffffffffffffffffffffffffffffffffffffffffff1916145b80610694575061069382611346565b5b9050919050565b6060600080546106aa906129f0565b80601f01602080910402602001604051908101604052809291908181526020018280546106d6906129f0565b80156107235780601f106106f857610100808354040283529160200191610723565b820191906000526020600020905b81548152906001019060200180831161070657829003601f168201915b5050505050905090565b6000610738826113b0565b610777576040517f08c379a000000000000000000000000000000000000000000000000000000000815260040161076e90612a94565b60405180910390fd5b6004600083815260200190815260200160002060009054906101000a900473ffffffffffffffffffffffffffffffffffffffff169050919050565b60006107bd82610c72565b90508073ffffffffffffffffffffffffffffffffffffffff168373ffffffffffffffffffffffffffffffffffffffff16141561082e576040517f08c379a000000000000000000000000000000000000000000000000000000000815260040161082590612b26565b60405180910390fd5b8073ffffffffffffffffffffffffffffffffffffffff1661084d61141c565b73ffffffffffffffffffffffffffffffffffffffff16148061087c575061087b8161087661141c565b611094565b5b6108bb576040517f08c379a00000000000000000000000000000000000000000000000000000000081526004016108b290612bb8565b60405180910390fd5b6108c5838361142b565b505050565b606060006040518060600160405280600860008a73ffffffffffffffffffffffffffffffffffffffff1673ffffffffffffffffffffffffffffffffffffffff1681526020019081526020016000205481526020018873ffffffffffffffffffffffffffffffffffffffff16815260200187815250905061094d87828787876114e4565b61098c576040517f08c379a000000000000000000000000000000000000000000000000000000000815260040161098390612c4a565b60405180910390fd5b6109df6001600860008a73ffffffffffffffffffffffffffffffffffffffff1673ffffffffffffffffffffffffffffffffffffffff168152602001908152602001600020546115ed90919063ffffffff16565b600860008973ffffffffffffffffffffffffffffffffffffffff1673ffffffffffffffffffffffffffffffffffffffff168152602001908152602001600020819055507f5845892132946850460bff5a0083f71031bc5bf9aadcd40f1de79423eac9b10b873388604051610a5593929190612c8b565b60405180910390a16000803073ffffffffffffffffffffffffffffffffffffffff16888a604051602001610a8a929190612d4d565b604051602081830303815290604052604051610aa69190612d75565b6000604051808303816000865af19150503d8060008114610ae3576040519150601f19603f3d011682016040523d82523d6000602084013e610ae8565b606091505b509150915081610b2d576040517f08c379a0000000000000000000000000000000000000000000000000000000008152600401610b2490612dd8565b60405180910390fd5b80935050505095945050505050565b6040518060400160405280600181526020017f310000000000000000000000000000000000000000000000000000000000000081525081565b60006001610b83600a611603565b610b8d9190612e27565b905090565b6000600754905090565b610bad610ba761141c565b82611611565b610bec576040517f08c379a0000000000000000000000000000000000000000000000000000000008152600401610be390612ecd565b60405180910390fd5b610bf78383836116ef565b505050565b6000600860008373ffffffffffffffffffffffffffffffffffffffff1673ffffffffffffffffffffffffffffffffffffffff168152602001908152602001600020549050919050565b6000804690508091505090565b610c6d83838360405180602001604052806000815250610fd8565b505050565b6000806002600084815260200190815260200160002060009054906101000a900473ffffffffffffffffffffffffffffffffffffffff169050600073ffffffffffffffffffffffffffffffffffffffff168173ffffffffffffffffffffffffffffffffffffffff161415610d1b576040517f08c379a0000000000000000000000000000000000000000000000000000000008152600401610d1290612f5f565b60405180910390fd5b80915050919050565b60008073ffffffffffffffffffffffffffffffffffffffff168273ffffffffffffffffffffffffffffffffffffffff161415610d95576040517f08c379a0000000000000000000000000000000000000000000000000000000008152600401610d8c90612ff1565b60405180910390fd5b600360008373ffffffffffffffffffffffffffffffffffffffff1673ffffffffffffffffffffffffffffffffffffffff168152602001908152602001600020549050919050565b610de461141c565b73ffffffffffffffffffffffffffffffffffffffff16610e02610f06565b73ffffffffffffffffffffffffffffffffffffffff1614610e58576040517f08c379a0000000000000000000000000000000000000000000000000000000008152600401610e4f9061305d565b60405180910390fd5b610e62600061194b565b565b610e6c61141c565b73ffffffffffffffffffffffffffffffffffffffff16610e8a610f06565b73ffffffffffffffffffffffffffffffffffffffff1614610ee0576040517f08c379a0000000000000000000000000000000000000000000000000000000008152600401610ed79061305d565b60405180910390fd5b6000610eec600a611603565b9050610ef8600a61127f565b610f028282611a11565b5050565b6000600960009054906101000a900473ffffffffffffffffffffffffffffffffffffffff16905090565b606060018054610f3f906129f0565b80601f0160208091040260200160405190810160405280929190818152602001828054610f6b906129f0565b8015610fb85780601f10610f8d57610100808354040283529160200191610fb8565b820191906000526020600020905b815481529060010190602001808311610f9b57829003601f168201915b5050505050905090565b610fd4610fcd61141c565b8383611a2f565b5050565b610fe9610fe361141c565b83611611565b611028576040517f08c379a000000000000000000000000000000000000000000000000000000000815260040161101f90612ecd565b60405180910390fd5b61103484848484611b9c565b50505050565b6060611044611074565b61104d83611bf8565b60405160200161105e9291906130b9565b6040516020818303038152906040529050919050565b606060405180606001604052806028815260200161396660289139905090565b600080600b60009054906101000a900473ffffffffffffffffffffffffffffffffffffffff1690508273ffffffffffffffffffffffffffffffffffffffff168173ffffffffffffffffffffffffffffffffffffffff1663c4552791866040518263ffffffff1660e01b815260040161110c9190612485565b602060405180830381865afa158015611129573d6000803e3d6000fd5b505050506040513d601f19601f8201168201806040525081019061114d919061311b565b73ffffffffffffffffffffffffffffffffffffffff161415611173576001915050611181565b61117d8484611d59565b9150505b92915050565b61118f61141c565b73ffffffffffffffffffffffffffffffffffffffff166111ad610f06565b73ffffffffffffffffffffffffffffffffffffffff1614611203576040517f08c379a00000000000000000000000000000000000000000000000000000000081526004016111fa9061305d565b60405180910390fd5b600073ffffffffffffffffffffffffffffffffffffffff168173ffffffffffffffffffffffffffffffffffffffff161415611273576040517f08c379a000000000000000000000000000000000000000000000000000000000815260040161126a906131ba565b60405180910390fd5b61127c8161194b565b50565b6001816000016000828254019250508190555050565b60003073ffffffffffffffffffffffffffffffffffffffff163373ffffffffffffffffffffffffffffffffffffffff16141561133f57600080368080601f016020809104026020016040519081016040528093929190818152602001838380828437600081840152601f19601f820116905080830192505050505050509050600080369050905073ffffffffffffffffffffffffffffffffffffffff818301511692505050611343565b3390505b90565b60007f01ffc9a7000000000000000000000000000000000000000000000000000000007bffffffffffffffffffffffffffffffffffffffffffffffffffffffff1916827bffffffffffffffffffffffffffffffffffffffffffffffffffffffff1916149050919050565b60008073ffffffffffffffffffffffffffffffffffffffff166002600084815260200190815260200160002060009054906101000a900473ffffffffffffffffffffffffffffffffffffffff1673ffffffffffffffffffffffffffffffffffffffff1614159050919050565b6000611426611295565b905090565b816004600083815260200190815260200160002060006101000a81548173ffffffffffffffffffffffffffffffffffffffff021916908373ffffffffffffffffffffffffffffffffffffffff160217905550808273ffffffffffffffffffffffffffffffffffffffff1661149e83610c72565b73ffffffffffffffffffffffffffffffffffffffff167f8c5be1e5ebec7d5bd14f71427d1e84f3dd0314c0f7b2291e5b200ac8c7c3b92560405160405180910390a45050565b60008073ffffffffffffffffffffffffffffffffffffffff168673ffffffffffffffffffffffffffffffffffffffff161415611555576040517f08c379a000000000000000000000000000000000000000000000000000000000815260040161154c9061324c565b60405180910390fd5b600161156861156387611ded565b611e55565b83868660405160008152602001604052604051611588949392919061327b565b6020604051602081039080840390855afa1580156115aa573d6000803e3d6000fd5b5050506020604051035173ffffffffffffffffffffffffffffffffffffffff168673ffffffffffffffffffffffffffffffffffffffff1614905095945050505050565b600081836115fb91906132c0565b905092915050565b600081600001549050919050565b600061161c826113b0565b61165b576040517f08c379a000000000000000000000000000000000000000000000000000000000815260040161165290613388565b60405180910390fd5b600061166683610c72565b90508073ffffffffffffffffffffffffffffffffffffffff168473ffffffffffffffffffffffffffffffffffffffff1614806116d557508373ffffffffffffffffffffffffffffffffffffffff166116bd8461072d565b73ffffffffffffffffffffffffffffffffffffffff16145b806116e657506116e58185611094565b5b91505092915050565b8273ffffffffffffffffffffffffffffffffffffffff1661170f82610c72565b73ffffffffffffffffffffffffffffffffffffffff1614611765576040517f08c379a000000000000000000000000000000000000000000000000000000000815260040161175c9061341a565b60405180910390fd5b600073ffffffffffffffffffffffffffffffffffffffff168273ffffffffffffffffffffffffffffffffffffffff1614156117d5576040517f08c379a00000000000000000000000000000000000000000000000000000000081526004016117cc906134ac565b60405180910390fd5b6117e0838383611e8e565b6117eb60008261142b565b6001600360008573ffffffffffffffffffffffffffffffffffffffff1673ffffffffffffffffffffffffffffffffffffffff168152602001908152602001600020600082825461183b9190612e27565b925050819055506001600360008473ffffffffffffffffffffffffffffffffffffffff1673ffffffffffffffffffffffffffffffffffffffff168152602001908152602001600020600082825461189291906132c0565b92505081905550816002600083815260200190815260200160002060006101000a81548173ffffffffffffffffffffffffffffffffffffffff021916908373ffffffffffffffffffffffffffffffffffffffff160217905550808273ffffffffffffffffffffffffffffffffffffffff168473ffffffffffffffffffffffffffffffffffffffff167fddf252ad1be2c89b69c2b068fc378daa952ba7f163c4a11628f55a4df523b3ef60405160405180910390a4505050565b6000600960009054906101000a900473ffffffffffffffffffffffffffffffffffffffff16905081600960006101000a81548173ffffffffffffffffffffffffffffffffffffffff021916908373ffffffffffffffffffffffffffffffffffffffff1602179055508173ffffffffffffffffffffffffffffffffffffffff168173ffffffffffffffffffffffffffffffffffffffff167f8be0079c531659141344cd1fd0a4f28419497f9722a3daafe3b4186f6b6457e060405160405180910390a35050565b611a2b828260405180602001604052806000815250611e93565b5050565b8173ffffffffffffffffffffffffffffffffffffffff168373ffffffffffffffffffffffffffffffffffffffff161415611a9e576040517f08c379a0000000000000000000000000000000000000000000000000000000008152600401611a9590613518565b60405180910390fd5b80600560008573ffffffffffffffffffffffffffffffffffffffff1673ffffffffffffffffffffffffffffffffffffffff16815260200190815260200160002060008473ffffffffffffffffffffffffffffffffffffffff1673ffffffffffffffffffffffffffffffffffffffff16815260200190815260200160002060006101000a81548160ff0219169083151502179055508173ffffffffffffffffffffffffffffffffffffffff168373ffffffffffffffffffffffffffffffffffffffff167f17307eab39ab6107e8899845ad3d59bd9653f200f220920489ca2b5937696c3183604051611b8f919061230b565b60405180910390a3505050565b611ba78484846116ef565b611bb384848484611eee565b611bf2576040517f08c379a0000000000000000000000000000000000000000000000000000000008152600401611be9906135aa565b60405180910390fd5b50505050565b60606000821415611c40576040518060400160405280600181526020017f30000000000000000000000000000000000000000000000000000000000000008152509050611d54565b600082905060005b60008214611c72578080611c5b906135ca565b915050600a82611c6b9190613642565b9150611c48565b60008167ffffffffffffffff811115611c8e57611c8d612516565b5b6040519080825280601f01601f191660200182016040528015611cc05781602001600182028036833780820191505090505b5090505b60008514611d4d57600182611cd99190612e27565b9150600a85611ce89190613673565b6030611cf491906132c0565b60f81b818381518110611d0a57611d096136a4565b5b60200101907effffffffffffffffffffffffffffffffffffffffffffffffffffffffffffff1916908160001a905350600a85611d469190613642565b9450611cc4565b8093505050505b919050565b6000600560008473ffffffffffffffffffffffffffffffffffffffff1673ffffffffffffffffffffffffffffffffffffffff16815260200190815260200160002060008373ffffffffffffffffffffffffffffffffffffffff1673ffffffffffffffffffffffffffffffffffffffff16815260200190815260200160002060009054906101000a900460ff16905092915050565b6000604051806080016040528060438152602001613923604391398051906020012082600001518360200151846040015180519060200120604051602001611e3894939291906136d3565b604051602081830303815290604052805190602001209050919050565b6000611e5f610b92565b82604051602001611e71929190613785565b604051602081830303815290604052805190602001209050919050565b505050565b611e9d8383612076565b611eaa6000848484611eee565b611ee9576040517f08c379a0000000000000000000000000000000000000000000000000000000008152600401611ee0906135aa565b60405180910390fd5b505050565b6000611f0f8473ffffffffffffffffffffffffffffffffffffffff16612244565b15612069578373ffffffffffffffffffffffffffffffffffffffff1663150b7a02611f3861141c565b8786866040518563ffffffff1660e01b8152600401611f5a94939291906137bc565b6020604051808303816000875af1925050508015611f9657506040513d601f19601f82011682018060405250810190611f93919061381d565b60015b612019573d8060008114611fc6576040519150601f19603f3d011682016040523d82523d6000602084013e611fcb565b606091505b50600081511415612011576040517f08c379a0000000000000000000000000000000000000000000000000000000008152600401612008906135aa565b60405180910390fd5b805181602001fd5b63150b7a0260e01b7bffffffffffffffffffffffffffffffffffffffffffffffffffffffff1916817bffffffffffffffffffffffffffffffffffffffffffffffffffffffff19161491505061206e565b600190505b949350505050565b600073ffffffffffffffffffffffffffffffffffffffff168273ffffffffffffffffffffffffffffffffffffffff1614156120e6576040517f08c379a00000000000000000000000000000000000000000000000000000000081526004016120dd90613896565b60405180910390fd5b6120ef816113b0565b1561212f576040517f08c379a000000000000000000000000000000000000000000000000000000000815260040161212690613902565b60405180910390fd5b61213b60008383611e8e565b6001600360008473ffffffffffffffffffffffffffffffffffffffff1673ffffffffffffffffffffffffffffffffffffffff168152602001908152602001600020600082825461218b91906132c0565b92505081905550816002600083815260200190815260200160002060006101000a81548173ffffffffffffffffffffffffffffffffffffffff021916908373ffffffffffffffffffffffffffffffffffffffff160217905550808273ffffffffffffffffffffffffffffffffffffffff16600073ffffffffffffffffffffffffffffffffffffffff167fddf252ad1be2c89b69c2b068fc378daa952ba7f163c4a11628f55a4df523b3ef60405160405180910390a45050565b600080823b905060008111915050919050565b6000604051905090565b600080fd5b600080fd5b60007fffffffff0000000000000000000000000000000000000000000000000000000082169050919050565b6122a08161226b565b81146122ab57600080fd5b50565b6000813590506122bd81612297565b92915050565b6000602082840312156122d9576122d8612261565b5b60006122e7848285016122ae565b91505092915050565b60008115159050919050565b612305816122f0565b82525050565b600060208201905061232060008301846122fc565b92915050565b600081519050919050565b600082825260208201905092915050565b60005b83811015612360578082015181840152602081019050612345565b8381111561236f576000848401525b50505050565b6000601f19601f8301169050919050565b600061239182612326565b61239b8185612331565b93506123ab818560208601612342565b6123b481612375565b840191505092915050565b600060208201905081810360008301526123d98184612386565b905092915050565b6000819050919050565b6123f4816123e1565b81146123ff57600080fd5b50565b600081359050612411816123eb565b92915050565b60006020828403121561242d5761242c612261565b5b600061243b84828501612402565b91505092915050565b600073ffffffffffffffffffffffffffffffffffffffff82169050919050565b600061246f82612444565b9050919050565b61247f81612464565b82525050565b600060208201905061249a6000830184612476565b92915050565b6124a981612464565b81146124b457600080fd5b50565b6000813590506124c6816124a0565b92915050565b600080604083850312156124e3576124e2612261565b5b60006124f1858286016124b7565b925050602061250285828601612402565b9150509250929050565b600080fd5b600080fd5b7f4e487b7100000000000000000000000000000000000000000000000000000000600052604160045260246000fd5b61254e82612375565b810181811067ffffffffffffffff8211171561256d5761256c612516565b5b80604052505050565b6000612580612257565b905061258c8282612545565b919050565b600067ffffffffffffffff8211156125ac576125ab612516565b5b6125b582612375565b9050602081019050919050565b82818337600083830152505050565b60006125e46125df84612591565b612576565b905082815260208101848484011115612600576125ff612511565b5b61260b8482856125c2565b509392505050565b600082601f8301126126285761262761250c565b5b81356126388482602086016125d1565b91505092915050565b6000819050919050565b61265481612641565b811461265f57600080fd5b50565b6000813590506126718161264b565b92915050565b600060ff82169050919050565b61268d81612677565b811461269857600080fd5b50565b6000813590506126aa81612684565b92915050565b600080600080600060a086880312156126cc576126cb612261565b5b60006126da888289016124b7565b955050602086013567ffffffffffffffff8111156126fb576126fa612266565b5b61270788828901612613565b945050604061271888828901612662565b935050606061272988828901612662565b925050608061273a8882890161269b565b9150509295509295909350565b600081519050919050565b600082825260208201905092915050565b600061276e82612747565b6127788185612752565b9350612788818560208601612342565b61279181612375565b840191505092915050565b600060208201905081810360008301526127b68184612763565b905092915050565b6127c7816123e1565b82525050565b60006020820190506127e260008301846127be565b92915050565b6127f181612641565b82525050565b600060208201905061280c60008301846127e8565b92915050565b60008060006060848603121561282b5761282a612261565b5b6000612839868287016124b7565b935050602061284a868287016124b7565b925050604061285b86828701612402565b9150509250925092565b60006020828403121561287b5761287a612261565b5b6000612889848285016124b7565b91505092915050565b61289b816122f0565b81146128a657600080fd5b50565b6000813590506128b881612892565b92915050565b600080604083850312156128d5576128d4612261565b5b60006128e3858286016124b7565b92505060206128f4858286016128a9565b9150509250929050565b6000806000806080858703121561291857612917612261565b5b6000612926878288016124b7565b9450506020612937878288016124b7565b935050604061294887828801612402565b925050606085013567ffffffffffffffff81111561296957612968612266565b5b61297587828801612613565b91505092959194509250565b6000806040838503121561299857612997612261565b5b60006129a6858286016124b7565b92505060206129b7858286016124b7565b9150509250929050565b7f4e487b7100000000000000000000000000000000000000000000000000000000600052602260045260246000fd5b60006002820490506001821680612a0857607f821691505b60208210811415612a1c57612a1b6129c1565b5b50919050565b7f4552433732313a20617070726f76656420717565727920666f72206e6f6e657860008201527f697374656e7420746f6b656e0000000000000000000000000000000000000000602082015250565b6000612a7e602c83612331565b9150612a8982612a22565b604082019050919050565b60006020820190508181036000830152612aad81612a71565b9050919050565b7f4552433732313a20617070726f76616c20746f2063757272656e74206f776e6560008201527f7200000000000000000000000000000000000000000000000000000000000000602082015250565b6000612b10602183612331565b9150612b1b82612ab4565b604082019050919050565b60006020820190508181036000830152612b3f81612b03565b9050919050565b7f4552433732313a20617070726f76652063616c6c6572206973206e6f74206f7760008201527f6e6572206e6f7220617070726f76656420666f7220616c6c0000000000000000602082015250565b6000612ba2603883612331565b9150612bad82612b46565b604082019050919050565b60006020820190508181036000830152612bd181612b95565b9050919050565b7f5369676e657220616e64207369676e617475726520646f206e6f74206d61746360008201527f6800000000000000000000000000000000000000000000000000000000000000602082015250565b6000612c34602183612331565b9150612c3f82612bd8565b604082019050919050565b60006020820190508181036000830152612c6381612c27565b9050919050565b6000612c7582612444565b9050919050565b612c8581612c6a565b82525050565b6000606082019050612ca06000830186612476565b612cad6020830185612c7c565b8181036040830152612cbf8184612763565b9050949350505050565b600081905092915050565b6000612cdf82612747565b612ce98185612cc9565b9350612cf9818560208601612342565b80840191505092915050565b60008160601b9050919050565b6000612d1d82612d05565b9050919050565b6000612d2f82612d12565b9050919050565b612d47612d4282612464565b612d24565b82525050565b6000612d598285612cd4565b9150612d658284612d36565b6014820191508190509392505050565b6000612d818284612cd4565b915081905092915050565b7f46756e6374696f6e2063616c6c206e6f74207375636365737366756c00000000600082015250565b6000612dc2601c83612331565b9150612dcd82612d8c565b602082019050919050565b60006020820190508181036000830152612df181612db5565b9050919050565b7f4e487b7100000000000000000000000000000000000000000000000000000000600052601160045260246000fd5b6000612e32826123e1565b9150612e3d836123e1565b925082821015612e5057612e4f612df8565b5b828203905092915050565b7f4552433732313a207472616e736665722063616c6c6572206973206e6f74206f60008201527f776e6572206e6f7220617070726f766564000000000000000000000000000000602082015250565b6000612eb7603183612331565b9150612ec282612e5b565b604082019050919050565b60006020820190508181036000830152612ee681612eaa565b9050919050565b7f4552433732313a206f776e657220717565727920666f72206e6f6e657869737460008201527f656e7420746f6b656e0000000000000000000000000000000000000000000000602082015250565b6000612f49602983612331565b9150612f5482612eed565b604082019050919050565b60006020820190508181036000830152612f7881612f3c565b9050919050565b7f4552433732313a2062616c616e636520717565727920666f7220746865207a6560008201527f726f206164647265737300000000000000000000000000000000000000000000602082015250565b6000612fdb602a83612331565b9150612fe682612f7f565b604082019050919050565b6000602082019050818103600083015261300a81612fce565b9050919050565b7f4f776e61626c653a2063616c6c6572206973206e6f7420746865206f776e6572600082015250565b6000613047602083612331565b915061305282613011565b602082019050919050565b600060208201905081810360008301526130768161303a565b9050919050565b600081905092915050565b600061309382612326565b61309d818561307d565b93506130ad818560208601612342565b80840191505092915050565b60006130c58285613088565b91506130d18284613088565b91508190509392505050565b60006130e882612464565b9050919050565b6130f8816130dd565b811461310357600080fd5b50565b600081519050613115816130ef565b92915050565b60006020828403121561313157613130612261565b5b600061313f84828501613106565b91505092915050565b7f4f776e61626c653a206e6577206f776e657220697320746865207a65726f206160008201527f6464726573730000000000000000000000000000000000000000000000000000602082015250565b60006131a4602683612331565b91506131af82613148565b604082019050919050565b600060208201905081810360008301526131d381613197565b9050919050565b7f4e61746976654d6574615472616e73616374696f6e3a20494e56414c49445f5360008201527f49474e4552000000000000000000000000000000000000000000000000000000602082015250565b6000613236602583612331565b9150613241826131da565b604082019050919050565b6000602082019050818103600083015261326581613229565b9050919050565b61327581612677565b82525050565b600060808201905061329060008301876127e8565b61329d602083018661326c565b6132aa60408301856127e8565b6132b760608301846127e8565b95945050505050565b60006132cb826123e1565b91506132d6836123e1565b9250827fffffffffffffffffffffffffffffffffffffffffffffffffffffffffffffffff0382111561330b5761330a612df8565b5b828201905092915050565b7f4552433732313a206f70657261746f7220717565727920666f72206e6f6e657860008201527f697374656e7420746f6b656e0000000000000000000000000000000000000000602082015250565b6000613372602c83612331565b915061337d82613316565b604082019050919050565b600060208201905081810360008301526133a181613365565b9050919050565b7f4552433732313a207472616e73666572206f6620746f6b656e2074686174206960008201527f73206e6f74206f776e0000000000000000000000000000000000000000000000602082015250565b6000613404602983612331565b915061340f826133a8565b604082019050919050565b60006020820190508181036000830152613433816133f7565b9050919050565b7f4552433732313a207472616e7366657220746f20746865207a65726f2061646460008201527f7265737300000000000000000000000000000000000000000000000000000000602082015250565b6000613496602483612331565b91506134a18261343a565b604082019050919050565b600060208201905081810360008301526134c581613489565b9050919050565b7f4552433732313a20617070726f766520746f2063616c6c657200000000000000600082015250565b6000613502601983612331565b915061350d826134cc565b602082019050919050565b60006020820190508181036000830152613531816134f5565b9050919050565b7f4552433732313a207472616e7366657220746f206e6f6e20455243373231526560008201527f63656976657220696d706c656d656e7465720000000000000000000000000000602082015250565b6000613594603283612331565b915061359f82613538565b604082019050919050565b600060208201905081810360008301526135c381613587565b9050919050565b60006135d5826123e1565b91507fffffffffffffffffffffffffffffffffffffffffffffffffffffffffffffffff82141561360857613607612df8565b5b600182019050919050565b7f4e487b7100000000000000000000000000000000000000000000000000000000600052601260045260246000fd5b600061364d826123e1565b9150613658836123e1565b92508261366857613667613613565b5b828204905092915050565b600061367e826123e1565b9150613689836123e1565b92508261369957613698613613565b5b828206905092915050565b7f4e487b7100000000000000000000000000000000000000000000000000000000600052603260045260246000fd5b60006080820190506136e860008301876127e8565b6136f560208301866127be565b6137026040830185612476565b61370f60608301846127e8565b95945050505050565b7f1901000000000000000000000000000000000000000000000000000000000000600082015250565b600061374e60028361307d565b915061375982613718565b600282019050919050565b6000819050919050565b61377f61377a82612641565b613764565b82525050565b600061379082613741565b915061379c828561376e565b6020820191506137ac828461376e565b6020820191508190509392505050565b60006080820190506137d16000830187612476565b6137de6020830186612476565b6137eb60408301856127be565b81810360608301526137fd8184612763565b905095945050505050565b60008151905061381781612297565b92915050565b60006020828403121561383357613832612261565b5b600061384184828501613808565b91505092915050565b7f4552433732313a206d696e7420746f20746865207a65726f2061646472657373600082015250565b6000613880602083612331565b915061388b8261384a565b602082019050919050565b600060208201905081810360008301526138af81613873565b9050919050565b7f4552433732313a20746f6b656e20616c7265616479206d696e74656400000000600082015250565b60006138ec601c83612331565b91506138f7826138b6565b602082019050919050565b6000602082019050818103600083015261391b816138df565b905091905056fe4d6574615472616e73616374696f6e2875696e74323536206e6f6e63652c616464726573732066726f6d2c62797465732066756e6374696f6e5369676e617475726529687474703a2f2f6e66742e6e657572616c6669656c642e636f6d3a383038302f6170692f6e66742fa264697066735822122094622c798f1a3481353e740f7d3e952b77d39d82b3b31783e86180e3e604820f64736f6c634300080b0033454950373132446f6d61696e28737472696e67206e616d652c737472696e672076657273696f6e2c6164647265737320766572696679696e67436f6e74726163742c627974657333322073616c7429",
  "devdoc": {
    "kind": "dev",
    "methods": {
      "approve(address,uint256)": {
        "details": "See {IERC721-approve}."
      },
      "balanceOf(address)": {
        "details": "See {IERC721-balanceOf}."
      },
      "getApproved(uint256)": {
        "details": "See {IERC721-getApproved}."
      },
      "mintTo(address)": {
        "details": "Mints a token to an address with a tokenURI.",
        "params": {
          "_to": "address of the future owner of the token"
        }
      },
      "name()": {
        "details": "See {IERC721Metadata-name}."
      },
      "owner()": {
        "details": "Returns the address of the current owner."
      },
      "ownerOf(uint256)": {
        "details": "See {IERC721-ownerOf}."
      },
      "renounceOwnership()": {
        "details": "Leaves the contract without owner. It will not be possible to call `onlyOwner` functions anymore. Can only be called by the current owner. NOTE: Renouncing ownership will leave the contract without an owner, thereby removing any functionality that is only available to the owner."
      },
      "safeTransferFrom(address,address,uint256)": {
        "details": "See {IERC721-safeTransferFrom}."
      },
      "safeTransferFrom(address,address,uint256,bytes)": {
        "details": "See {IERC721-safeTransferFrom}."
      },
      "setApprovalForAll(address,bool)": {
        "details": "See {IERC721-setApprovalForAll}."
      },
      "supportsInterface(bytes4)": {
        "details": "See {IERC165-supportsInterface}."
      },
      "symbol()": {
        "details": "See {IERC721Metadata-symbol}."
      },
      "totalSupply()": {
        "details": "Returns the total tokens minted so far. 1 is always subtracted from the Counter since it tracks the next available tokenId."
      },
      "transferFrom(address,address,uint256)": {
        "details": "See {IERC721-transferFrom}."
      },
      "transferOwnership(address)": {
        "details": "Transfers ownership of the contract to a new account (`newOwner`). Can only be called by the current owner."
      }
    },
    "title": "TestNFT TestNFT - a contract for a non-fungible token",
    "version": 1
  },
  "userdoc": {
    "kind": "user",
    "methods": {
      "isApprovedForAll(address,address)": {
        "notice": "Override isApprovedForAll to whitelist user's OpenSea proxy accounts to enable gas-less listings."
      }
    },
    "version": 1
  },
  "storageLayout": {
    "storage": [
      {
        "astId": 130,
        "contract": "contracts/TestNFT.sol:TestNFT",
        "label": "_name",
        "offset": 0,
        "slot": "0",
        "type": "t_string_storage"
      },
      {
        "astId": 132,
        "contract": "contracts/TestNFT.sol:TestNFT",
        "label": "_symbol",
        "offset": 0,
        "slot": "1",
        "type": "t_string_storage"
      },
      {
        "astId": 136,
        "contract": "contracts/TestNFT.sol:TestNFT",
        "label": "_owners",
        "offset": 0,
        "slot": "2",
        "type": "t_mapping(t_uint256,t_address)"
      },
      {
        "astId": 140,
        "contract": "contracts/TestNFT.sol:TestNFT",
        "label": "_balances",
        "offset": 0,
        "slot": "3",
        "type": "t_mapping(t_address,t_uint256)"
      },
      {
        "astId": 144,
        "contract": "contracts/TestNFT.sol:TestNFT",
        "label": "_tokenApprovals",
        "offset": 0,
        "slot": "4",
        "type": "t_mapping(t_uint256,t_address)"
      },
      {
        "astId": 150,
        "contract": "contracts/TestNFT.sol:TestNFT",
        "label": "_operatorApprovals",
        "offset": 0,
        "slot": "5",
        "type": "t_mapping(t_address,t_mapping(t_address,t_bool))"
      },
      {
        "astId": 2413,
        "contract": "contracts/TestNFT.sol:TestNFT",
        "label": "inited",
        "offset": 0,
        "slot": "6",
        "type": "t_bool"
      },
      {
        "astId": 2320,
        "contract": "contracts/TestNFT.sol:TestNFT",
        "label": "domainSeperator",
        "offset": 0,
        "slot": "7",
        "type": "t_bytes32"
      },
      {
        "astId": 2459,
        "contract": "contracts/TestNFT.sol:TestNFT",
        "label": "nonces",
        "offset": 0,
        "slot": "8",
        "type": "t_mapping(t_address,t_uint256)"
      },
      {
        "astId": 7,
        "contract": "contracts/TestNFT.sol:TestNFT",
        "label": "_owner",
        "offset": 0,
        "slot": "9",
        "type": "t_address"
      },
      {
        "astId": 2077,
        "contract": "contracts/TestNFT.sol:TestNFT",
        "label": "_nextTokenId",
        "offset": 0,
        "slot": "10",
        "type": "t_struct(Counter)1421_storage"
      },
      {
        "astId": 2079,
        "contract": "contracts/TestNFT.sol:TestNFT",
        "label": "proxyRegistryAddress",
        "offset": 0,
        "slot": "11",
        "type": "t_address"
      }
    ],
    "types": {
      "t_address": {
        "encoding": "inplace",
        "label": "address",
        "numberOfBytes": "20"
      },
      "t_bool": {
        "encoding": "inplace",
        "label": "bool",
        "numberOfBytes": "1"
      },
      "t_bytes32": {
        "encoding": "inplace",
        "label": "bytes32",
        "numberOfBytes": "32"
      },
      "t_mapping(t_address,t_bool)": {
        "encoding": "mapping",
        "key": "t_address",
        "label": "mapping(address => bool)",
        "numberOfBytes": "32",
        "value": "t_bool"
      },
      "t_mapping(t_address,t_mapping(t_address,t_bool))": {
        "encoding": "mapping",
        "key": "t_address",
        "label": "mapping(address => mapping(address => bool))",
        "numberOfBytes": "32",
        "value": "t_mapping(t_address,t_bool)"
      },
      "t_mapping(t_address,t_uint256)": {
        "encoding": "mapping",
        "key": "t_address",
        "label": "mapping(address => uint256)",
        "numberOfBytes": "32",
        "value": "t_uint256"
      },
      "t_mapping(t_uint256,t_address)": {
        "encoding": "mapping",
        "key": "t_uint256",
        "label": "mapping(uint256 => address)",
        "numberOfBytes": "32",
        "value": "t_address"
      },
      "t_string_storage": {
        "encoding": "bytes",
        "label": "string",
        "numberOfBytes": "32"
      },
      "t_struct(Counter)1421_storage": {
        "encoding": "inplace",
        "label": "struct Counters.Counter",
        "members": [
          {
            "astId": 1420,
            "contract": "contracts/TestNFT.sol:TestNFT",
            "label": "_value",
            "offset": 0,
            "slot": "0",
            "type": "t_uint256"
          }
        ],
        "numberOfBytes": "32"
      },
      "t_uint256": {
        "encoding": "inplace",
        "label": "uint256",
        "numberOfBytes": "32"
      }
    }
  }
}